:100000000C942A000C9434000C9434000C943400AA
:100010000C9434000C9434000C9434000C94340090
:100020000C9434000C9434000C9434000C94340080
:100030000C9434000C9434000C9434000C94340070
:100040000C9434000C9434000C9434000C94340060
:100050000C94340011241FBECFE5D8E0DEBFCDBF25
:100060000E9401010C9415010C94000092E095BBD4
:1000700082BB15BA8FE59AEE0197F1F700C0000038
:10008000089593E095BB82BB81E085BB8FE59AEE36
:100090000197F1F700C00000089581E088BB89B3A3
:1000A000813039F487E30E94410086E00E943600E7
:1000B000089589B3823039F488E30E94410086E0D4
:1000C0000E943600089589B3843039F489E30E9490
:1000D000410086E00E943600089589B3883031F4EB
:1000E0008FE20E94410086E00E943600089582E07F
:1000F00088BB89B3813039F484E30E94410086E0F3
:100100000E943600089589B3823039F485E30E9455
:10011000410086E00E943600089589B3843039F4A6
:1001200086E30E94410086E00E943600089589B36C
:10013000883031F48AE20E94410086E00E94360055
:10014000089584E088BB89B3813039F481E30E944B
:10015000410086E00E943600089589B3823039F468
:1001600082E30E94410086E00E943600089589B330
:10017000843039F483E30E94410086E00E94360017
:10018000089589B3883031F48DE20E94410086E001
:100190000E943600089588E088BB89B3813039F425
:1001A00083E40E94410086E00E943600089589B3EE
:1001B000823039F480E30E94410086E00E943600DC
:1001C000089589B3843039F48DE30E94410086E0BC
:1001D0000E943600089589B3883031F48BE20E9482
:1001E000410086E00E94360008951ABA8FEF87BB5F
:1001F0000E944D000E9477000E94A1000E94CB0047
:1002000008951ABA8FEF87BB84BB81BB88E30E9435
:1002100036008FE00E94360081E00E94360080E8C0
:0E0220000E9436000E94F500FDCFF894FFCF3B
:00000001FF
