:100000000C9462000C948A000C948A000C948A0070
:100010000C948A000C948A000C948A000C948A0038
:100020000C948A000C948A000C948A000C948A0028
:100030000C948A000C948A000C948A000C948A0018
:100040000C945F030C948A000C948A000C948A0030
:100050000C948A000C948A000C948A000C948A00F8
:100060000C948A000C948A000000000024002700F1
:100070002A0000000000250028002B0000000000DE
:1000800023002600290004040404040404040202DA
:100090000202020203030303030301020408102007
:1000A0004080010204081020010204081020000012
:1000B0000008000201000003040700000000000027
:1000C00000005B0511241FBECFEFD8E0DEBFCDBF1F
:1000D00011E0A0E0B1E0E0EBFBE002C005900D9282
:1000E000AA33B107D9F721E0AAE3B1E001C01D921C
:1000F000AA3CB207E1F710E0C2E6D0E004C02197C5
:10010000FE010E94D005C136D107C9F70E94A9039C
:100110000C94D6050C94000096E0899FD001112420
:10012000AD5BBE4F90967C936E935F9791E09196F6
:100130009C939197E091B001F091B1019091AF0142
:10014000992339F0309751F0811108C080915F01F7
:100150000994309719F05C968C91FACF0895CF925C
:10016000DF92EF92FF920F931F9396E0899FF00129
:100170001124ED5BFE4F11A2278D30A121303105F6
:1001800051F178F02230310509F451C023303105A6
:1001900009F452C01F910F91FF90EF90DF90CF9024
:1001A00008956623B9F361E070E00E948C002FB7D8
:1001B000F89480913F0190914001A0914101B0914C
:1001C00042012FBF80939B0190939C01A0939D01BE
:1001D000B0939E01DFCF9FB7F894C0903F01D090BD
:1001E0004001E0904101F09042019FBF00919B01CE
:1001F00010919C0120919D0130919E01C01AD10A5D
:10020000E20AF30A0091AD011091AE0130E020E066
:100210000C151D052E053F0550F462E070E01F919E
:100220000F91FF90EF90DF90CF900C948C006111B4
:10023000B1CF63E070E0F3CF70E060E0F0CFAF9259
:10024000BF92CF92DF92EF92FF920F931F93CF93C3
:10025000DF936C017B018B01040F151FEB015E0125
:10026000AE18BF08C017D10759F06991D601ED91BA
:10027000FC910190F081E02DC6010995892B79F759
:10028000C501DF91CF911F910F91FF90EF90DF900B
:10029000CF90BF90AF900895833081F028F48130E3
:1002A00099F08230A9F008958730A9F08830C9F01C
:1002B0008430B1F4809180008F7D03C080918000F4
:1002C0008F7780938000089584B58F7784BD0895DB
:1002D00084B58F7DFBCF8091B0008F778093B00085
:1002E00008958091B0008F7DF9CFCF93DF93282FB1
:1002F00030E0F901E255FF4F8491F901E656FF4FD6
:10030000D491F901EA57FF4FC491CC23A1F0811198
:100310000E944C01EC2FF0E0EE0FFF1FE458FF4F5E
:10032000A591B491EC91ED2381E090E009F480E097
:10033000DF91CF91089580E090E0FACF862F0C9462
:1003400075011F93CF93DF93282F30E0F901E25519
:10035000FF4F8491F901E656FF4FD491F901EA5716
:10036000FF4FC491CC23A9F0162F81110E944C019C
:10037000EC2FF0E0EE0FFF1FEE58FF4FA591B49168
:100380008FB7F894EC91111108C0D095DE23DC935F
:100390008FBFDF91CF911F910895DE2BF8CF862F6D
:1003A000642F0C94A101CF93DF9390E0FC01E656FB
:1003B000FF4F24918A579F4FFC0184918823C9F0F5
:1003C00090E0880F991FFC01E859FF4FA591B49167
:1003D000FC01EE58FF4FC591D49161110DC09FB73C
:1003E000F8948C91209582238C93888128232883EC
:1003F0009FBFDF91CF910895623051F49FB7F89479
:100400003C91822F809583238C93E8812E2BEFCF14
:100410008FB7F894EC912E2B2C938FBFEACF862FB9
:10042000642F0C94D301089590E080E00895CF9359
:10043000DF93EC0160E08E810E94A10161E08E817A
:100440000E94A10160E08E810E94A1018BE891E0F1
:100450000197F1F7DF91CF910895CF92DF92EF925C
:10046000FF920F931F93CF93DF936C017C0187E082
:10047000E80EF11CD0E0C0E0062F10E0B8010C2E11
:1004800002C0759567950A94E2F76170F701819152
:100490007F010E94A1012196C430D10579F7C601E0
:1004A000DF91CF911F910F91FF90EF90DF90CF9050
:1004B0000C941702CF92DF92EF92FF920F931F934B
:1004C000CF93DF93EC01F62E642F8C810E94A10163
:1004D0008D818F3F19F060E00E94A1010F2D10E087
:1004E0008F8584FF25C06E0187E0C80ED11CF12CDA
:1004F000E12CB8010E2C02C0759567950A94E2F7BD
:100500006170F60181916F010E94A101FFEFEF1A66
:10051000FF0A88E0E816F10461F7CE01DF91CF9180
:100520001F910F91FF90EF90DF90CF900C941702E6
:10053000B80184E0759567958A95E1F7CE010E9430
:100540002D026F2DCE01DF91CF911F910F91FF9062
:10055000EF90DF90CF900C942D0240E0682F82EB5B
:1005600091E00C945A02CF93DF93823029F490915A
:10057000C10198609093C1018093C5011092C6019A
:1005800080E48093C70180E18093C80180E5809377
:10059000C90161E08091B6010E94D3018091B70149
:1005A0008F3F19F061E00E94D30161E08091B801B2
:1005B0000E94D301C2EBD1E09E01225B31408091C9
:1005C000C10184FD0BC084E090E021962817390713
:1005D00044F461E08E810E94D301EECF88E090E088
:1005E000F4CF8BE39DE00197F1F760E08091B601D5
:1005F0000E94A10160E08091B8010E94A101809158
:10060000B7018F3F19F060E00E94A1018091C10104
:1006100084FD39C063E082EB91E00E942D02CBE4BF
:10062000D6E4CE010197F1F763E082EB91E00E94FE
:100630002D022197F1F763E082EB91E00E942D02F9
:1006400083E592E00197F1F762E082EB91E00E948E
:100650002D028091C10180620E94AD0284E08093EE
:10066000C2018CE00E94AD0281E00E94AD028BE3EA
:100670009FE10197F1F782E08093C30186E0DF916B
:10068000CF910C94AD0280620E94AD028BE496E49F
:100690000197F1F78091C10180620E94AD0283E56C
:1006A00092E00197F1F78091C10180620E94AD0252
:1006B000D0CF41E00E945A0281E090E008951F925D
:1006C0000F920FB60F9211242F933F938F939F9306
:1006D000AF93BF9380913F0190914001A091410160
:1006E000B091420130913E0123E0230F2D3758F5A0
:1006F0000196A11DB11D20933E0180933F0190936F
:100700004001A0934101B093420180913A01909140
:100710003B01A0913C01B0913D010196A11DB11D8D
:1007200080933A0190933B01A0933C01B0933D012B
:10073000BF91AF919F918F913F912F910F900FBEDD
:100740000F901F90189526E8230F0296A11DB11D4A
:10075000D2CF789484B5826084BD84B5816084BD35
:1007600085B5826085BD85B5816085BD80916E004F
:10077000816080936E001092810080918100826080
:1007800080938100809181008160809381008091BD
:1007900080008160809380008091B10084608093AC
:1007A000B1008091B00081608093B00080917A00A8
:1007B000846080937A0080917A00826080937A00CE
:1007C00080917A00816080937A0080917A008068BD
:1007D00080937A001092C10082E00E94B302412C03
:1007E000512C3201439422242A94322C50E0C52EFD
:1007F00050E0D52E51E05093AF018FB7F89440915F
:100800003F015091400160914101709142018FBFC1
:1008100080919F019091A001A091A101B091A201AE
:10082000481B590B6A0B7B0B8091AB019091AC017B
:10083000B0E0A0E084179507A607B70708F012C13B
:10084000C0E08091A901C81760F4E091A501F09182
:10085000A601EC0FF11D62E080810E94D301CF5F01
:10086000F0CF912C8091AA01981608F05FC0092D55
:1008700010E0E091A701F091A801E00FF11F61E005
:1008800080810E94D301E091A701F091A801E00FBF
:10089000F11F60E080810E94A101D301C201092CF7
:1008A00004C0880F991FAA1FBB1F0A94D2F75C01CE
:1008B0007C01E094F094812C8091A9018816F8F4D1
:1008C000C82DD0E0E091A501F091A601EC0FFD1F2D
:1008D00080810E9475012496CC0FDD1FCD5BDE4F19
:1008E000892B41F4888199818A299B29998388835E
:1008F0008394E2CF888199818E219F21F7CFE09167
:10090000A701F091A801E00FF11F61E080810E9432
:10091000A1018091A7019091A801080F191F60E023
:10092000F80180810E94D30193949CCFC3E4D1E06D
:10093000FE01878D90A1892B21F4148E368E258E91
:1009400011A2369651E0EF37F50799F710E0809144
:10095000A901181708F053C000E0E12EF12CEE0CAD
:10096000FF1CC701855B9E4F7C012091AA010217E5
:1009700008F043C0F70160817181002E02C07695B6
:1009800067950A94E2F7129F90011124200F311D00
:10099000E3E4F1E080E0458D568D2417350709F436
:1009A00088C08F5F36968A30B1F760FF24C0E3E4D9
:1009B000F1E090E080E0448D411118C0E091A30186
:1009C000F091A401E20FF31F408156E0589FF0011F
:1009D000599FF00D1124ED5BFE4F448F368F258F0C
:1009E00010A2178E61E00E94AF0005C001963696F6
:1009F0008A30910501F70F5FB8CF1F5FA8CF80E065
:100A000099A19111892F269691E0CF37D907C1F787
:100A10009FB7F89440913F0150914001609141018E
:100A2000709142019FBF40939F015093A00160933A
:100A3000A1017093A2018823A9F080916401882309
:100A400089F08091620190916301019759F480913E
:100A50005F0181110AC0C114D10409F4CBCE0E94F8
:100A60000000C8CE1092AF01F6CFE091C501E23090
:100A7000F0F4E150F0E0EE54FE4F84898F5F80681F
:100A80000E94AD024BE050E06EE271E082EB91E03B
:100A90000E941F018091C201982F94609093C2011F
:100AA0008C600E94AD028CE10E94AD02D4CFE1E0E7
:100AB000E1CF617098CF1092B5011092B40186E237
:100AC00091E09093B3018093B2018DE08093B601E1
:100AD0008FEF8093B7018CE08093B8018BE0809317
:100AE000B9018AE08093BA0181E08093BB01109242
:100AF000BC011092BD011092BE011092BF01109274
:100B0000C0011092C1010E94B302109245011092DF
:100B100049011092480110924A018CE191E09093B2
:100B2000440180934301EFE5F1E0108214821382C7
:100B30001582369681E0EB39F807B9F784E091E049
:100B40009093A6018093A50180E091E09093A80185
:100B50008093A70184E08093A9018093AA0188E093
:100B600091E09093A4018093A3018AE090E0909398
:100B7000AC018093AB0184EF91E09093AE01809340
:100B8000AD011092B1011092B00110929F0110922C
:100B9000A0011092A1011092A2011092AF0108953C
:100BA000EE0FFF1F0590F491E02D0994F894FFCF0C
:100BB00006070809020304053738392F3435362A69
:100BC0003132332D63303D2B000000000F02CF0186
:100BD0009E010000000059031F011402130249275F
:0A0BE0006D204C617468696B6100C0
:107E0000112484B714BE81FFF0D085E080938100F7
:107E100082E08093C00088E18093C10086E0809377
:107E2000C20080E18093C4008EE0C9D0259A86E02C
:107E300020E33CEF91E0309385002093840096BBD3
:107E4000B09BFECF1D9AA8958150A9F7CC24DD24C4
:107E500088248394B5E0AB2EA1E19A2EF3E0BF2EE7
:107E6000A2D0813461F49FD0082FAFD0023811F036
:107E7000013811F484E001C083E08DD089C08234E0
:107E800011F484E103C0853419F485E0A6D080C0E4
:107E9000853579F488D0E82EFF2485D0082F10E0AE
:107EA000102F00270E291F29000F111F8ED06801E7
:107EB0006FC0863521F484E090D080E0DECF843638
:107EC00009F040C070D06FD0082F6DD080E0C81688
:107ED00080E7D80618F4F601B7BEE895C0E0D1E017
:107EE00062D089930C17E1F7F0E0CF16F0E7DF06D8
:107EF00018F0F601B7BEE89568D007B600FCFDCFD4
:107F0000A601A0E0B1E02C9130E011968C91119780
:107F100090E0982F8827822B932B1296FA010C0160
:107F200087BEE89511244E5F5F4FF1E0A038BF0790
:107F300051F7F601A7BEE89507B600FCFDCF97BE46
:107F4000E89526C08437B1F42ED02DD0F82E2BD052
:107F50003CD0F601EF2C8F010F5F1F4F84911BD097
:107F6000EA94F801C1F70894C11CD11CFA94CF0C13
:107F7000D11C0EC0853739F428D08EE10CD085E9AC
:107F80000AD08FE07ACF813511F488E018D01DD067
:107F900080E101D065CF982F8091C00085FFFCCF94
:107FA0009093C60008958091C00087FFFCCF809118
:107FB000C00084FD01C0A8958091C6000895E0E648
:107FC000F0E098E1908380830895EDDF803219F02E
:107FD00088E0F5DFFFCF84E1DECF1F93182FE3DFCA
:107FE0001150E9F7F2DF1F91089580E0E8DFEE27F6
:047FF000FF270994CA
:027FFE00040479
:0400000300007E007B
:00000001FF
