:100000000C9463000C948B000C948B000C948B006C
:100010000C948B000C948B000C948B000C948B0034
:100020000C948B000C948B000C948B000C948B0024
:100030000C948B000C948B000C948B000C948B0014
:100040000C9492070C948B000C9460070C943A0764
:100050000C948B000C948B000C948B000C948B00F4
:100060000C94DC070C948B00000000002400270097
:100070002A0000000000250028002B0000000000DE
:1000800023002600290004040404040404040202DA
:100090000202020203030303030301020408102007
:1000A0004080010204081020010204081020000012
:1000B0000008000201000003040700000000000027
:1000C0000000F708F30F11241FBECFEFD8E0DEBF0A
:1000D000CDBF23E0A0EAB1E001C01D92A239B20772
:1000E000E1F711E0A0E0B1E0EEEEF8E202C0059029
:1000F0000D92A03AB107D9F710E0C2E6D0E004C0F3
:100100002197FE010E947212C136D107C9F70E94E1
:10011000C2090C946A140C94000080E480937C0063
:1001200080917A00806480937A0080917A0086FDC5
:10013000FCCF8091780090917900089596E0899F96
:10014000D0011124AD5EBC4F90967C936E935F9767
:1001500091E091969C939197E0918003F0918103B7
:1001600090917F03992339F0309751F0811108C0A5
:1001700080912F030994309719F05C968C91FACFF7
:100180000895CF92DF92EF92FF920F931F9396E024
:10019000899FF0011124ED5EFC4F11A2278D30A143
:1001A0002130310551F178F02230310509F451C088
:1001B0002330310509F452C01F910F91FF90EF9049
:1001C000DF90CF9008956623B9F361E070E00E945C
:1001D0009E002FB7F89480914E0290914F02A0910B
:1001E0005002B09151022FBF80936B0390936C0328
:1001F000A0936D03B0936E03DFCF9FB7F894C090C8
:100200004E02D0904F02E0905002F09051029FBFFA
:1002100000916B0310916C0320916D0330916E037C
:10022000C01AD10AE20AF30A00917D0310917E03FD
:1002300030E020E00C151D052E053F0550F462E06E
:1002400070E01F910F91FF90EF90DF90CF900C9492
:100250009E006111B1CF63E070E0F3CF70E060E029
:10026000F0CFDB0114964D915C9115976D917C91C7
:10027000DC01ED91FC910280F381E02D0994AF92B5
:10028000BF92CF92DF92EF92FF920F931F93CF9383
:10029000DF936C017B018B01040F151FEB015E01E5
:1002A000AE18BF08C017D10759F06991D601ED917A
:1002B000FC910190F081E02DC6010995892B79F719
:1002C000C501DF91CF911F910F91FF90EF90DF90CB
:1002D000CF90BF90AF900895FC01538D448D252F92
:1002E00030E0842F90E0821B930B541710F0CF96D0
:1002F000089501970895FC01918D828D981761F002
:10030000A28DAE0FBF2FB11D5D968C91928D9F5F18
:100310009F73928F90E008958FEF9FEF0895FC01F7
:10032000918D828D981731F0828DE80FF11D858DAA
:1003300090E008958FEF9FEF0895FC01918D228D3D
:10034000892F90E0805C9F4F821B91098F739927C2
:10035000089582E592E00E949D0121E0892B09F435
:1003600020E0822F089580E090E0892B29F00E9400
:10037000A90181110C9400000895FC01A48DA80F1F
:10038000B92FB11DA35ABF4F2C91848D90E00196D7
:100390008F739927848FA689B7892C93A089B189F7
:1003A0008C91837080648C93938D848D981306C098
:1003B0000288F389E02D80818F7D80830895EF92FC
:1003C000FF920F931F93CF93DF93EC0181E0888F0F
:1003D0009B8D8C8D98131AC0E889F989808185FFDF
:1003E00015C09FB7F894EE89FF896083E889F98981
:1003F00080818370806480839FBF81E090E0DF9183
:10040000CF911F910F91FF90EF900895F62E0B8DD5
:1004100010E00F5F1F4F0F731127E02E8C8D8E1190
:100420000CC00FB607FCFACFE889F989808185FFF7
:10043000F5CFCE010E94BD01F1CFEB8DEC0FFD2F6A
:10044000F11DE35AFF4FF0829FB7F8940B8FEA89B2
:10045000FB8980818062CFCFCF93DF93EC01888DC1
:100460008823B9F0AA89BB89E889F9898C9185FD2F
:1004700003C0808186FD0DC00FB607FCF7CF8C91BD
:1004800085FFF2CF808185FFEDCFCE010E94BD01B7
:10049000E9CFDF91CF910895833081F028F4813046
:1004A00099F08230A9F008958730A9F08830C9F01A
:1004B0008430B1F4809180008F7D03C080918000F2
:1004C0008F7780938000089584B58F7784BD0895D9
:1004D00084B58F7DFBCF8091B0008F778093B00083
:1004E00008958091B0008F7DF9CFCF93DF93282FAF
:1004F00030E0F901E255FF4F8491F901E656FF4FD4
:10050000D491F901EA57FF4FC491CC23A1F0811196
:100510000E944C02EC2FF0E0EE0FFF1FE458FF4F5B
:10052000A591B491EC91ED2381E090E009F480E095
:10053000DF91CF91089580E090E0FACF862F0C9460
:1005400075021F93CF93DF93282F30E0F901E25516
:10055000FF4F8491F901E656FF4FD491F901EA5714
:10056000FF4FC491CC23A9F0162F81110E944C0299
:10057000EC2FF0E0EE0FFF1FEE58FF4FA591B49166
:100580008FB7F894EC91111108C0D095DE23DC935D
:100590008FBFDF91CF911F910895DE2BF8CF862F6B
:1005A000642F0C94A102CF93DF9390E0FC01E656F8
:1005B000FF4F24918A579F4FFC0184918823C9F0F3
:1005C00090E0880F991FFC01E859FF4FA591B49165
:1005D000FC01EE58FF4FC591D49161110DC09FB73A
:1005E000F8948C91209582238C93888128232883EA
:1005F0009FBFDF91CF910895623051F49FB7F89477
:100600003C91822F809583238C93E8812E2BEFCF12
:100610008FB7F894EC912E2B2C938FBFEACF862FB7
:10062000642F0C94D3021F93CF93DF93182FEB0109
:1006300061E00E94D302209739F460E0812FDF91BE
:10064000CF911F910C94A102CF3FD10511F461E02D
:10065000F5CFE12FF0E0E255FF4FE491E33031F1C7
:1006600040F4E130B1F0E230E1F0C038D1057CF780
:10067000E4CFE73029F1E83059F1E430B1F7809167
:100680008000806280938000D0938B00C0938A00AA
:1006900004C084B5806884BDC7BDDF91CF911F9130
:1006A000089584B5806284BDC8BDF7CF8091800075
:1006B000806880938000D0938900C0938800EDCF3C
:1006C0008091B00080688093B000C093B300E5CF04
:1006D0008091B00080628093B000C093B400DDCF01
:1006E0003FB7F8948091360290913702A09138027A
:1006F000B091390226B5A89B05C02F3F19F001968D
:10070000A11DB11D3FBFBA2FA92F982F8827BC016B
:10071000CD01620F711D811D911D42E0660F771F93
:10072000881F991F4A95D1F708958F929F92AF9293
:10073000BF92CF92DF92EF92FF924B015C010E9439
:1007400070036B017C010E9470036C197D098E0996
:100750009F09683E734081059105A8F321E0821A44
:100760009108A108B10888EEC80E83E0D81EE11CEC
:10077000F11C81149104A104B10429F7FF90EF90BA
:10078000DF90CF90BF90AF909F908F900895089585
:100790001F93CF93DF93C1E0C093A101882399F108
:1007A000D091B8001091BA008091BC008A7B8093F0
:1007B000BC0060E082E10E94A10260E083E10E944F
:1007C000A10210920B02C0930A021092E50161E0AF
:1007D00082E10E94A10261E083E10E94A102809176
:1007E000B9008E7F8093B9008091B9008D7F80938E
:1007F000B90088E48093B80085E48093BC0010932E
:10080000BA00D093B800DF91CF911F910895209145
:10081000C201260F3327331F21323105ECF420911A
:100820000B02FC0190E080E0243069F082E0089542
:10083000A091C2012191AC014E555E4FA40FB52F7E
:10084000B11D2C930196861798F38091C201680F11
:100850006093C20180E0089581E0089508958FEFCC
:100860009FEF08958FEF9FEF08958091A00190E092
:100870009195819591090895CF92DF92EF92FF9221
:100880000F931F93CF93DF937C01CB018A012091BB
:100890001102222389F0EB016B01C40ED51ECC1589
:1008A000DD0569F06991D701ED91FC910190F0812E
:1008B000E02DC7010995F3CF642F0E940704C801FA
:1008C000DF91CF911F910F91FF90EF90DF90CF902C
:1008D0000895CF93DF931F92CDB7DEB76983209140
:1008E00011022223F9F020913402203258F021E045
:1008F00030E0FC013383228390E080E00F90DF91B1
:10090000CF91089580911202E82FF0E0ED5EFD4F47
:10091000998190838F5F809312028093340281E0EB
:1009200090E0ECCF61E0CE0101960E940704F7CF82
:10093000CF92DF92EF92FF920F931F93CF93DF93AB
:10094000FC01C48121E020931102C0933302109274
:100950001202109234028385682B8FEE92E00E947F
:100960006904D0913402D13208F092C00E94700321
:100970006B017C0180910B02811165C082E0809344
:100980000B0281E080930A028FEF8093090210929C
:100990000802D0930702A3E1B2E0E7EEF1E080E0C5
:1009A000D81385C01092E6018091E601CC0FC82BC8
:1009B000C093E6018091E501813009F07CC010927E
:1009C000E5010E9470036B017C018091E601809338
:1009D000BB0080910D0290910E02A0910F02B09188
:1009E0001002892B8A2B8B2B99F00E9470030091A7
:1009F0000D0210910E0220910F02309110026C191D
:100A00007D098E099F090617170728073907E0F1A6
:100A10008091BC0083FDD9CF85EC8093BC000E94FF
:100A200070036B017C0180910B02823009F445C098
:100A3000809109028F3F61F180910902803241F17A
:100A40008091090225C080910D0290910E02A09123
:100A50000F02B0911002892B8A2B8B2B09F48ACFBD
:100A60000E94700300910D0210910E0220910F025E
:100A7000309110026C197D098E099F09061717071E
:100A80002807390708F076CF80910C020E94C8032E
:100A9000109212021092340210921102DF91CF9143
:100AA0001F910F91FF90EF90DF90CF9008959D914F
:100AB00091938F5F75CF85EEB0CF80910D029091AD
:100AC0000E02A0910F02B0911002892B8A2B8B2B62
:100AD00009F4A9CF0E94700300910D0210910E023B
:100AE00020910F02309110026C197D098E099F0927
:100AF000061717072807390708F095CFC5CF90E0EC
:100B000080E008950F931F93CF938C01C62F0E940E
:100B100098046C2F6460C8010E9498046C2F6B7F4E
:100B2000C8010E94980483EC90E00197F1F7CF91FF
:100B30001F910F9108950F931F93CF93DF938C0113
:100B4000D62FC42F607F642B0E94820580E1D89F3E
:100B5000B00111246C2BC801DF91CF911F910F912F
:100B60000C948205CF93DF93CDB7DEB728970FB6ED
:100B7000F894DEBF0FBECDBF98E0EEE1F1E0DE01FC
:100B8000119601900D929A95E1F790918A0396172C
:100B900008F46FEF262F30E0220F331F41E050E0C2
:100BA0004C0F5D1F240F351FF9016081680F6068CD
:100BB00040E082E893E028960FB6F894DEBF0FBEBF
:100BC000CDBFDF91CF910C949B0540E061E082E8BE
:100BD00093E00E949B058BE39FE10197F1F7089555
:100BE00041E00E949B0581E090E00895FC010190A6
:100BF0000020E9F73197AF01481B590BBC0182E88F
:100C000093E00C943F01FC0180819181009711F0E9
:100C10000C94031060E070E0CB0108950F931F93D4
:100C2000CF93DF93EC0188819981009759F02A8155
:100C30003B812617370730F081E0DF91CF911F917C
:100C40000F9108958B016F5F7F4F0E949D13009756
:100C500059F0998388831B830A832C813D81232B40
:100C600059F7FC011082E8CF80E0E7CFCF93DF9304
:100C7000EC0188819981009711F00E941413198268
:100C800018821D821C821B821A82DF91CF910895E7
:100C9000EF92FF920F931F93CF93DF93EC01FB0131
:100CA000E080F180E114F10411F104811581011556
:100CB0001105A9F08C819D81080F191FB801CE0183
:100CC0000E940E06882399F0288139818C819D81AC
:100CD000B701820F931F0E9463141D830C83CE0102
:100CE000DF91CF911F910F91FF90EF900895CE016A
:100CF0000E943606F4CFEF92FF920F931F93CF938B
:100D0000DF93EC017B018A01BA010E940E0681117A
:100D10000BC0CE010E943606CE01DF91CF911F910C
:100D20000F91FF90EF9008951D830C83B701888188
:100D300099810E946314F0CFFB0101900020E9F734
:100D40003197AF01461B570B0C947B060F931F93F3
:100D5000CF93DF93CDB7DEB762970FB6F894DEBFBF
:100D60000FBECDBF8C01CB01F8011182108213821E
:100D70001282158214824AE0BE016F5F7F4F0E948B
:100D80002A10BE016F5F7F4FC8010E949C066296C9
:100D90000FB6F894DEBF0FBECDBFDF91CF911F918C
:100DA0000F910895CF93DF93EC01FB01861797070E
:100DB00049F0608171816115710541F0448155816F
:100DC0000E947B06CE01DF91CF9108950E943606E6
:100DD000F9CFFC01118210821382128215821482D3
:100DE000FB0101900020E9F73197AF01461B570B3B
:100DF0000C947B06FC0180819181009711F00C948A
:100E00001413089585ED8093BC0080910D0290919C
:100E10000E02A0910F02B09110020796A11DB11D04
:100E200023E0B695A795979587952A95D1F72091B8
:100E3000BC0024FD03C010920B02089540910D02E6
:100E400050910E0260910F0270911002452B462BBB
:100E5000472B69F30097A105B10541F025E32A95D9
:100E6000F1F700000197A109B109E1CF80910C02CF
:100E70000C94C8031F920F920FB60F9211242F9358
:100E80003F934F935F936F937F938F939F93AF9312
:100E9000BF93EF93FF9382E592E00E94BD01FF9123
:100EA000EF91BF91AF919F918F917F916F915F91E2
:100EB0004F913F912F910F900FBE0F901F9018955B
:100EC0001F920F920FB60F9211242F938F939F931F
:100ED000EF93FF93E0916202F09163028081E091D1
:100EE0006802F091690282FD1BC0908180916B02C3
:100EF0008F5F8F7320916C02821741F0E0916B023B
:100F0000F0E0EE5AFD4F958F80936B02FF91EF91C9
:100F10009F918F912F910F900FBE0F901F9018955A
:100F20008081F4CF1F920F920FB60F9211242F934E
:100F30003F938F939F93AF93BF9380914E02909175
:100F40004F02A0915002B09151023091350223E03E
:100F5000230F2D3758F50196A11DB11D20933502A1
:100F600080934E0290934F02A0935002B09351028F
:100F70008091360290913702A0913802B0913902E7
:100F80000196A11DB11D8093360290933702A09364
:100F90003802B0933902BF91AF919F918F913F91E9
:100FA0002F910F900FBE0F901F90189526E8230FDA
:100FB0000296A11DB11DD2CF1F920F920FB60F92B4
:100FC00011242F933F934F935F936F937F938F934E
:100FD0009F93AF93BF93EF93FF938091B900887F66
:100FE000803609F44AC0F0F5883209F4A5C018F536
:100FF000803109F499C0B8F4882309F4F5C0883029
:1010000009F492C0FF91EF91BF91AF919F918F91A1
:101010007F916F915F914F913F912F910F900FBEF4
:101020000F901F901895883109F486C0803251F7CF
:101030008093090214C0803409F49BC040F48033CB
:10104000B9F38833F9F68093090285ECAEC0803598
:1010500009F483C0883509F494C0883499F60E9455
:101060000207D0CF883909F48AC038F5883729F0CB
:1010700050F4883611F0803729F683E080930B0214
:101080001092E40155C0883809F479C0803919F00C
:10109000803809F0B7CF8091E401803208F06FC04A
:1010A000E091E40181E08E0F8093E4018091BB0028
:1010B000F0E0EC53FE4F80833BC0803B39F0D0F42E
:1010C000803A09F477C0883A09F09CCF84E0809395
:1010D0000B021092C3011092C201F0E0E0E009950A
:1010E0008091C20181110FC081E08093C2011092F2
:1010F000A20109C0803C09F4A8CF883C09F4A5CF1F
:10110000883B09F07FCFE091C30181E08E0F80938F
:10111000C301F0E0EE55FE4F80818093BB009091BB
:10112000C3018091C20129C08091E6018093BB0078
:1011300085EC8093BC0066CF9091080280910702F5
:10114000981758F5E091080281E08E0F809308020D
:10115000F0E0E951FE4F8081E9CFE091080281E0A3
:101160008E0F809308028091BB00F0E0E951FE4FA2
:10117000808390910802809107029817C8F285E851
:10118000D8CFE091080281E08E0F80930802809111
:10119000BB00F0E0E951FE4F808380910A0281118B
:1011A0005ECF81E08093E50184EA8093BC001092D9
:1011B0000B0228CF85EC8093BC0010920B0280912B
:1011C000E401803230F4E091E401F0E0EC53FE4FB2
:1011D00010826091E40170E084EC91E0F0E0E0E0E6
:1011E00009951092E4010ECF1092090238CF1092A7
:1011F00055021092540288EE93E0A0E0B0E0809394
:10120000560290935702A0935802B09359022AE2D3
:1012100031E0309353022093520225EC30E03093BA
:101220005F0220935E0224EC30E030936102209351
:10123000600220EC30E0309363022093620221ECE4
:1012400030E0309365022093640222EC30E030936A
:1012500067022093660226EC30E030936902209307
:10126000680210926B0210926C0210926D02109242
:101270006E021092F2021092F1028093F3029093A8
:10128000F402A093F502B093F6028CE391E0909300
:10129000F0028093EF02109285031092840388E598
:1012A00091E0909383038093820387E28093860387
:1012B00080E180938B0382E080938C0310928D03F6
:1012C00010921503109219031092180310921A032A
:1012D0008EE491E09093140380931303EFE2F3E024
:1012E0001082148213821582369683E0EB36F8075B
:1012F000B9F784E091E0909376038093750380E0E2
:1013000091E0909378038093770384E0809379034E
:1013100080937A0388E091E0909374038093730341
:101320008AE090E090937C0380937B0384EF91E0CC
:1013300090937E0380937D0310928103109280032B
:1013400010926F0310927003109271031092720347
:1013500010927F036EE971E08DE093E00E94E90650
:101360006EE971E087E093E00E94E9066EE971E0C2
:1013700081E093E00E94E90664E771E08BEF92E080
:101380000C94E906CF93DF93CDB7DEB72C970FB659
:10139000F894DEBF0FBECDBF789484B5826084BD63
:1013A00084B5816084BD85B5826085BD85B5816069
:1013B00085BD80916E00816080936E0010928100E7
:1013C00080918100826080938100809181008160A2
:1013D0008093810080918000816080938000809163
:1013E000B10084608093B1008091B00081608093EF
:1013F000B00080917A00846080937A0080917A00B6
:10140000826080937A0080917A00816080937A0074
:1014100080917A00806880937A001092C10061E028
:101420008BE00E94D30261E08AE00E94D30261E077
:1014300089E00E94D30260E08EE00E94D30261E066
:101440008FE00E94D30261E080E10E94D30261E05C
:1014500081E10E94D302E0916202F091630252E0C6
:10146000F52EF082E0915E02F0915F021082E09131
:101470006002F09161028FEC808310926A02E09129
:101480006602F091670286E08083E0916402F09149
:101490006502808180618083E0916402F091650241
:1014A000808188608083E0916402F0916502808190
:1014B00080688083E0916402F091650280818F7D75
:1014C000808380918703886080938703F0928A03EA
:1014D00062E370E080E090E00E94950360918D03EC
:1014E00082E893E00E94980468EE73E080E090E068
:1014F0000E94950360E382E893E00E9482050BE47A
:1015000016E4C8010197F1F760E382E893E00E94D6
:101510008205C8010197F1F760E382E893E00E9439
:10152000820583E592E00197F1F760E282E893E0BB
:101530000E94820560918703606240E082E893E048
:101540000E949B0584E08093880340E06CE082E881
:1015500093E00E949B050E94E505F092890340E01C
:1015600066E082E893E00E949B0540E062E082E84A
:1015700093E00E949B058BE39FE10197F1F760E008
:1015800080E00E94B20580E691E00E94F60560E0EE
:1015900088E00E94B20583E691E00E94F60561E0D2
:1015A00080E00E94B20586E691E00E94F60561E0C7
:1015B0008FE00E94B20589E691E00E94F605412C79
:1015C000512C320143943324339446E0842E3092DC
:1015D0007F038FB7F89440914E0250914F02609173
:1015E0005002709151028FBF80916F0390917003F0
:1015F000A0917103B0917203481B590B6A0B7B0BCE
:1016000080917B0390917C03B0E0A0E08417950764
:10161000A607B70708F0D0C210E080917903181729
:1016200060F4E0917503F0917603E10FF11D62E043
:1016300080810E94D3021F5FF0CF912C80917A03AA
:10164000981608F061C0E92CF12CE0917703F09135
:101650007803EE0DFF1D61E080810E94D302E091CE
:101660007703F0917803EE0DFF1D60E080810E940A
:10167000A102D301C201092C04C0880F991FAA1F1F
:10168000BB1F0A94D2F75C016C01C094D094212C4A
:1016900080917903281608F5022D10E0E09175037A
:1016A000F0917603E00FF11F80810E9475020C5FBC
:1016B0001F4F000F111FF801ED5EFC4F892B41F405
:1016C000808191818A299B29918380832394E0CF13
:1016D000808191818C219D21F7CFE0917703F0915A
:1016E0007803EE0DFF1D61E080810E94A1028091D0
:1016F000770390917803E80EF91E60E0F70180818E
:101700000E94D30293949ACF23E1E22E23E0F22E9B
:101710008701F801878D90A1892B31F4148E8FEF0A
:101720009FEF968F858F11A20A5F1F4FEFE4F3E0C2
:10173000E017F10771F7B12C80917903B81608F022
:1017400052C0A12CCB2CD12CCC0CDD1CC601855E4B
:101750009C4F6C0120917A03A21608F042C0F6015A
:10176000608171810A2C02C0769567950A94E2F730
:10177000B29E900111242A0D311DE3E1F3E080E0D7
:10178000458D568D2417350709F42BC48F5F369687
:101790008A30B1F760FF23C0E3E1F3E090E080E03E
:1017A000448D411117C0E0917303F0917403E20F6F
:1017B000F31F4081889EF001899EF00D1124ED5E9B
:1017C000FC4F448F368F258F10A2178E61E00E9448
:1017D000C10005C0019636968A30910509F7A39499
:1017E000B9CFB394A9CF80E0F70191A19111892FCE
:1017F000F6E0EF0EF11CE016F106B1F79FB7F89492
:1018000040914E0250914F026091500270915102EE
:101810009FBF40936F035093700360937103709365
:101820007203882309F4C8C180913403882309F422
:10183000C3C18091320390913303019709F0BCC179
:1018400090902F0383E4981609F4EEC19BE299125D
:10185000B6C10E94E50560E085E00E94B20585E71B
:1018600091E00E94F60510924502109244021092F7
:10187000430210924202109241021092400284E010
:10188000A82EB12C61E08FE00E94A10264E670E016
:1018900080E090E00E9495030E948D00C090440279
:1018A000D0904502C80ED91ED0924502C092440283
:1018B00060E08FE00E94A10261E080E10E94A1024D
:1018C00064E670E080E090E00E9495030E948D0045
:1018D000E0904202F0904302E80EF91EF0924302BB
:1018E000E092420260E080E10E94A10261E081E1B9
:1018F0000E94A10264E670E080E090E00E949503FF
:101900000E948D000091400210914102080F191FA2
:10191000109341020093400260E081E10E94A10225
:10192000E1E0AE1AB10809F0ADCFB601DD0C880BCD
:10193000990B0E94761020E030E040E85EE30E94C0
:10194000D5105B016C0120E030E0A9010E946D120E
:1019500020E030E040E05FE387FDB0C1C601B501A3
:101960000E94CB110E94371270934502609344028B
:10197000B701FF0C880B990B0E94761020E030E035
:1019800040E85EE30E94D5106B017C0120E030E06E
:10199000A9010E946D1220E030E040E05FE387FD86
:1019A00092C1C701B6010E94CB110E9437127093F9
:1019B000430260934202B801110F880B990B0E94F9
:1019C000761020E030E040E85EE30E94D5106B0125
:1019D0007C0120E030E0A9010E946D1220E030E09F
:1019E00040E05FE387FD74C1C701B6010E94CB11DF
:1019F0000E94371270934102609340020E94E505F5
:101A000081E090E0909349028093480280914C02DB
:101A100090914D02029709F09DC00E94E50560E09B
:101A200080E00E94B2056DE771E0CE0101960E9450
:101A3000E9066DE073E0CE0101960E944806BC0104
:101A400082E893E00E943101CE0101960E94FA06DD
:101A500060E088E00E94B20561E871E0CE01019685
:101A60000E94E90667E073E0CE0101960E944806F5
:101A7000BC0182E893E00E943101CE0101960E94F0
:101A8000FA0661E080E00E94B20565E871E0CE01EF
:101A900001960E94E90661E073E0CE0101960E9482
:101AA0004806BC0182E893E00E943101CE01019614
:101AB0000E94FA0661E08DE00E94B20589E891E09B
:101AC0000E94F6059DE3991213C080914A029091FD
:101AD0004B0201968330910509F40DC190934B029E
:101AE00080934A0264E771E08BEF92E00E949C06CB
:101AF00080914A0290914B02009709F001C18091B8
:101B0000FF0290910003892B71F06BEF72E08DE082
:101B100093E00E94D2068DE093E00E94030670934A
:101B20003F0260933E0200913A0210913B02E09026
:101B30003C02F0903D0260913E0270913F028BE0CA
:101B40000E941303B7018AE00E941303B80189E0E1
:101B50000E94130380914C0290914D0281309105B7
:101B600059F42091480230914902232B09F0FAC020
:101B7000909347028093460280914C0290914D02CF
:101B8000892B69F48091480290914902892B09F0D0
:101B90009AC1E1E0F0E0F0934702E093460280E072
:101BA00090E0892B09F413CD0E94A901882309F440
:101BB0000ACD0E94000007CD10927F03912C8091E6
:101BC000460290914702019709F443CE80ED890DBA
:101BD0008A3008F01BCF1A8219821C821B821E8257
:101BE0001D826BEF72E0CE0101960E94D2069F82A9
:101BF00018860D811E810F5F1F4FB801CE0101961F
:101C00000E940E06811169C0CE0101960E9436061F
:101C1000BE016F5F7F4F8BEF92E00E94D206CE0134
:101C200001960E94FA06F2CE00914C0210914D02EC
:101C30000F5F1F4F10934D0200934C0210924B0206
:101C400010924A02109249021092480264E771E031
:101C50008BEF92E00E949C060330110521F4109254
:101C60004D0210924C0260914C0270914D02CE01D7
:101C700001960E94A6066DE671E0CE0107960E94CD
:101C8000E906BE016F5F7F4FCE0107960E944806AE
:101C9000BC0182E592E00E94310142E050E062E73F
:101CA00071E082E592E00E943F01CE0107960E941A
:101CB000FA06CE0101960E94FA0681CFC601B5014F
:101CC0000E94CA114FCEC701B6010E94CA116DCE43
:101CD000C701B6010E94CA118BCE29813A818D813C
:101CE0009E81BE01695F7F4F820F931F0E94631424
:101CF0001E830D838DCF10924B0210924A02F2CEBA
:101D000081309105B1F48091FF0290910003892BFD
:101D100009F409CF6BEF72E087E093E00E94D206EE
:101D200087E093E00E94030670933D0260933C02BB
:101D3000FACE029709F0F7CE8091FF02909100034E
:101D4000892B09F4F0CE6BEF72E081E093E00E9402
:101D5000D20681E093E00E94030670933B026093F9
:101D60003A02E1CE109247021092460200914402DC
:101D7000109145020B5F1F4F10933F0200933E02EC
:101D80008091420290914302069690933D02809387
:101D90003C028091400290914102079690933B0251
:101DA00080933A020E94E50560E080E00E94B2055F
:101DB000B801CE0101960E94A6066DE771E0CE0142
:101DC00007960E94E906BE016F5F7F4FCE0107961E
:101DD0000E944806BC0182E893E00E943101CE01D6
:101DE00007960E94FA06CE0101960E94FA0660E06C
:101DF00088E00E94B20560913C0270913D02CE01E4
:101E000001960E94A60661E871E0CE0107960E9445
:101E1000E906BE016F5F7F4FCE0107960E9448061C
:101E2000BC0182E893E00E943101CE0107960E9436
:101E3000FA06CE0101960E94FA0661E080E00E9457
:101E4000B20560913A0270913B02CE0101960E9468
:101E5000A60665E871E0CE0107960E94E906BE017C
:101E60006F5F7F4FCE0107960E944806BC0182E853
:101E700093E00E943101CE0107960E94FA06CE013E
:101E800001960E94FA0661E08DE00E94B2058DE89D
:101E900091E00E94F60500913A0210913B02E09019
:101EA0003C02F0903D0260913E0270913F028BE057
:101EB0000E941303B7018AE00E941303B80189E06E
:101EC0000E94130359CE10924702109246020E94BC
:101ED000E50560E080E00E94B20581E991E00E94A2
:101EE000F60560E088E00E94B20586E991E00E9474
:101EF000F60561E080E00E94B2058BE991E00E9466
:101F0000F60561E08DE00E94B20589E691E00E944D
:101F1000F605FDE39F1212C080914A0290914B0298
:101F200001968330910531F190934B0280934A02E0
:101F300064E771E08BEF92E00E949C0680914A0278
:101F400090914B020097D9F48091FF029091000389
:101F5000892B09F424CE6BEF72E08DE093E00E94B0
:101F6000D2068DE093E00E94030670933F026093D7
:101F70003E0215CE10924B0210924A02D9CF813008
:101F80009105B1F48091FF0290910003892B09F42F
:101F900006CE6BEF72E087E093E00E94D20687E006
:101FA00093E00E94030670933D0260933C02F7CDDC
:101FB000029709F0F4CD8091FF0290910003892BE4
:101FC00009F4EDCD6BEF72E081E093E00E94D20660
:101FD00081E093E00E94030670933B0260933A0213
:101FE000DECD6170F4CB8BEF92E00E94FA0681E0C7
:101FF00093E00E94FA0687E093E00E94FA068DE0E3
:1020000093E00C94FA061F93FC0199278827BC01E2
:10201000E89411911032E9F3193010F01E30C8F332
:102020001B3251F01D3249F4689406C00E943510ED
:10203000610F711D811D911D119110531A30B0F364
:102040003EF490958095709561957F4F8F4F9F4F8F
:102050001F910895BB274A3031F4992322F4BDE241
:10206000909581959F4F0C944B10592F482F372FE7
:10207000262F660F771F881F991F660F771F881FEF
:10208000991F620F731F841F951F660F771F881F8C
:10209000991F0895BB27FB015527AA27880F991F71
:1020A000AA1FA41710F0A41B83955051B9F7A05D87
:1020B000AA3308F0A95DA193009779F7B111B19304
:1020C0001192CB010C946410DC01FC01672F71911B
:1020D0007723E1F7329704C07C916D93708362910E
:1020E000AE17BF07C8F30895E89409C097FB3EF404
:1020F00090958095709561957F4F8F4F9F4F992355
:10210000A9F0F92F96E9BB279395F69587957795D2
:102110006795B795F111F8CFFAF4BB0F11F460FF92
:102120001BC06F5F7F4F8F4F9F4F16C0882311F0EA
:1021300096E911C0772321F09EE8872F762F05C0FE
:10214000662371F096E8862F70E060E02AF09A9599
:10215000660F771F881FDAF7880F9695879597F98E
:102160000895990F0008550FAA0BE0E8FEEF161628
:102170001706E807F907C0F012161306E407F5077B
:1021800098F0621B730B840B950B39F40A2661F0EF
:10219000232B242B252B21F408950A2609F4A14092
:1021A000A6958FEF811D811D08950E94E8100C9463
:1021B00059110E944B1138F00E94521120F09523C2
:1021C00011F00C9442110C94481111240C948D11AF
:1021D0000E946A1170F3959FC1F3950F50E0551F4F
:1021E000629FF001729FBB27F00DB11D639FAA276C
:1021F000F00DB11DAA1F649F6627B00DA11D661FBB
:10220000829F2227B00DA11D621F739FB00DA11DDB
:10221000621F839FA00D611D221F749F3327A00D95
:10222000611D231F849F600D211D822F762F6A2F31
:1022300011249F5750409AF0F1F088234AF0EE0F96
:10224000FF1FBB1F661F771F881F91505040A9F7C3
:102250009E3F510580F00C9442110C948D115F3F0C
:10226000E4F3983ED4F3869577956795B795F795FF
:10227000E7959F5FC1F7FE2B880F911D9695879577
:1022800097F9089597F99F6780E870E060E00895F6
:102290009FEF80EC089500240A941616170618067E
:1022A0000906089500240A9412161306140605065A
:1022B0000895092E0394000C11F4882352F0BB0FEB
:1022C00040F4BF2B11F460FF04C06F5F7F4F8F4F4E
:1022D0009F4F089557FD9058440F551F59F05F3F89
:1022E00071F04795880F97FB991F61F09F3F79F038
:1022F00087950895121613061406551FF2CF4695BA
:10230000F1DF08C0161617061806991FF1CF86953B
:102310007105610508940895E894BB27662777271F
:10232000CB0197F908952F923F924F925F926F924F
:102330007F928F929F92AF92BF92CF92DF92EF9255
:10234000FF920F931F93CF93DF93CDB7DEB7CA1BD6
:10235000DB0B0FB6F894DEBF0FBECDBF09942A8801
:10236000398848885F846E847D848C849B84AA84A9
:10237000B984C884DF80EE80FD800C811B81AA8136
:10238000B981CE0FD11D0FB6F894DEBF0FBECDBF01
:10239000ED0108955058BB27AA270E94E2110C9422
:1023A00059110E944B1138F00E94521120F039F45B
:1023B0009F3F19F426F40C9448110EF4E095E7FBC6
:1023C0000C944211E92F0E946A1158F3BA17620760
:1023D00073078407950720F079F4A6F50C948C1107
:1023E0000EF4E0950B2EBA2FA02D0B01B901900130
:1023F0000C01CA01A0011124FF27591B99F0593F74
:1024000050F4503E68F11A16F040A22F232F342FBB
:102410004427585FF3CF469537952795A795F04009
:102420005395C9F77EF41F16BA0B620B730B840B1E
:10243000BAF09150A1F0FF0FBB1F661F771F881FD6
:10244000C2F70EC0BA0F621F731F841F48F487952E
:1024500077956795B795F7959E3F08F0B0CF939520
:10246000880F08F09927EE0F9795879508950E9499
:102470003E126894B1110C948D1108950E9472114E
:1024800088F09F5798F0B92F9927B751B0F0E1F035
:10249000660F771F881F991F1AF0BA95C9F714C0E5
:1024A000B13091F00E948C11B1E008950C948C1120
:1024B000672F782F8827B85F39F0B93FCCF386951E
:1024C00077956795B395D9F73EF49095809570957B
:1024D00061957F4F8F4F9F4F08950E94B11008F470
:1024E0008FEF0895EE0FFF1F0590F491E02D0994F2
:1024F0000F931F93CF93DF938230910510F482E006
:1025000090E0E0919003F091910330E020E0B0E0A2
:10251000A0E0309799F42115310509F44AC0281B31
:10252000390B24303105D8F58A819B8161157105FD
:1025300089F1FB0193838283FE0111C040815181A7
:102540000281138148175907E0F04817590799F499
:10255000109761F012960C93129713961C93329673
:10256000CF01DF91CF911F910F91089500939003B8
:1025700010939103F4CF2115310551F04217530701
:1025800038F0A901DB019A01BD01DF01F801C1CFDB
:10259000EF01F9CF9093910380939003CDCFFE018B
:1025A000E20FF31F819391932250310939832883DD
:1025B000D7CF20918E0330918F03232B41F42091AC
:1025C0001A0130911B0130938F0320938E032091C9
:1025D0001801309119012115310541F42DB73EB78D
:1025E00040911C0150911D01241B350BE0918E037D
:1025F000F0918F03E217F307A0F42E1B3F0B28176F
:10260000390778F0AC014E5F5F4F2417350748F06B
:102610004E0F5F1F50938F0340938E0381939193CE
:102620009FCFF0E0E0E09CCFCF93DF930097E9F0FD
:10263000FC01329713821282A0919003B091910312
:10264000ED0130E020E01097A1F420813181820F6C
:10265000931F20918E0330918F032817390709F0BB
:1026600061C0F0938F03E0938E03DF91CF910895C3
:10267000EA01CE17DF07E8F54A815B819E0141152B
:102680005105B1F7E901FB83EA8349915991C40FE0
:10269000D51FEC17FD0761F4808191810296840FAC
:1026A000951FE90199838883828193819B838A8323
:1026B000F0E0E0E012968D919C9113970097B9F5A8
:1026C0002D913C911197CD010296820F931F20917D
:1026D0008E0330918F032817390739F6309751F55B
:1026E0001092910310929003B0938F03A0938E03E6
:1026F000BCCFD383C28340815181840F951FC817FB
:10270000D90761F44E5F5F4F88819981480F591F47
:10271000518340838A819B81938382832115310574
:1027200009F0B0CFF0939103E09390039ECFFD01A9
:10273000DC01C0CF13821282D7CFB0E0A0E0E3EA81
:10274000F3E10C9495118C01009751F4CB010E9498
:1027500078128C01C801CDB7DEB7E0E10C94B1115D
:10276000FC01E60FF71F9C0122503109E217F30725
:1027700008F49DC0D901CD91DC911197C617D707F8
:1027800098F0C530D10530F3CE010497861797072E
:1027900008F3C61BD70B2297C193D1936D937C93FB
:1027A000CF010E941413D6CF5B01AC1ABD0A4C01B5
:1027B0008C0E9D1EA0919003B0919103512C412C41
:1027C000F12CE12C109731F580918E0390918F03BD
:1027D0008815990509F05CC04616570608F058C0E0
:1027E0008091180190911901009741F48DB79EB71F
:1027F00040911C0150911D01841B950BE817F907AE
:1028000008F055C0F0938F03E0938E03F9017183B4
:102810006083A0CF8D919C91119712966C90129726
:1028200013967C901397A815B90559F56C0142E0F1
:10283000C40ED11CCA14DB0420F1AC014A195B0997
:10284000DA011296159780F0628273825183408379
:10285000D9016D937C93E114F10471F0D7011396C3
:10286000FC93EE93129776CF22968C0F9D1FF90161
:1028700091838083F301EFCFF0939103E093900372
:1028800069CF4816590608F42C017D01D3019ACF6F
:10289000CB010E9478127C01009749F0AE01B8018B
:1028A0000E945A14C8010E941413870153CF10E0EC
:1028B00000E050CFFB01DC0102C001900D924150BD
:1028C0005040D8F70895FB01DC0101900D920020E3
:1028D000E1F7089510E0C2E6D0E004C0FE010E94D6
:0E28E00072122196C336D107C9F7F894FFCFC4
:1028EE00050403020C0807063738392F3435362A0B
:1028FE003132332D43303D2B000092038000000017
:10290E0040001400540000000000DF013F016C0184
:10291E002C029D017B018F010000000069043C0424
:10292E007F052E04350432042F04000000000F032F
:10293E00CF029E0200000000F0053F017F05C70395
:10294E00523A00473A00423A0043414C006D6F64E0
:10295E0065000D0A005343414E494E4700523A203E
:10296E0000473A2000423A20005247420053454E5B
:10297E0000523A203000473A203000423A203000D0
:107E0000112484B714BE81FFF0D085E080938100F7
:107E100082E08093C00088E18093C10086E0809377
:107E2000C20080E18093C4008EE0C9D0259A86E02C
:107E300020E33CEF91E0309385002093840096BBD3
:107E4000B09BFECF1D9AA8958150A9F7CC24DD24C4
:107E500088248394B5E0AB2EA1E19A2EF3E0BF2EE7
:107E6000A2D0813461F49FD0082FAFD0023811F036
:107E7000013811F484E001C083E08DD089C08234E0
:107E800011F484E103C0853419F485E0A6D080C0E4
:107E9000853579F488D0E82EFF2485D0082F10E0AE
:107EA000102F00270E291F29000F111F8ED06801E7
:107EB0006FC0863521F484E090D080E0DECF843638
:107EC00009F040C070D06FD0082F6DD080E0C81688
:107ED00080E7D80618F4F601B7BEE895C0E0D1E017
:107EE00062D089930C17E1F7F0E0CF16F0E7DF06D8
:107EF00018F0F601B7BEE89568D007B600FCFDCFD4
:107F0000A601A0E0B1E02C9130E011968C91119780
:107F100090E0982F8827822B932B1296FA010C0160
:107F200087BEE89511244E5F5F4FF1E0A038BF0790
:107F300051F7F601A7BEE89507B600FCFDCF97BE46
:107F4000E89526C08437B1F42ED02DD0F82E2BD052
:107F50003CD0F601EF2C8F010F5F1F4F84911BD097
:107F6000EA94F801C1F70894C11CD11CFA94CF0C13
:107F7000D11C0EC0853739F428D08EE10CD085E9AC
:107F80000AD08FE07ACF813511F488E018D01DD067
:107F900080E101D065CF982F8091C00085FFFCCF94
:107FA0009093C60008958091C00087FFFCCF809118
:107FB000C00084FD01C0A8958091C6000895E0E648
:107FC000F0E098E1908380830895EDDF803219F02E
:107FD00088E0F5DFFFCF84E1DECF1F93182FE3DFCA
:107FE0001150E9F7F2DF1F91089580E0E8DFEE27F6
:047FF000FF270994CA
:027FFE00040479
:0400000300007E007B
:00000001FF
