:100000000C9463000C948B000C948B000C948B006C
:100010000C948B000C948B000C948B000C948B0034
:100020000C948B000C948B000C948B000C948B0024
:100030000C948B000C948B000C948B000C948B0014
:100040000C94CE050C948B000C948B000C948B00BC
:100050000C948B000C948B000C948B000C948B00F4
:100060000C9418060C948B0000000000240027005C
:100070002A0000000000250028002B0000000000DE
:1000800023002600290004040404040404040202DA
:100090000202020203030303030301020408102007
:1000A0004080010204081020010204081020000012
:1000B0000008000201000003040700000000000027
:1000C00000003307DD0A11241FBECFEFD8E0DEBFEA
:1000D000CDBF22E0A0E5B1E001C01D92A938B20772
:1000E000E1F711E0A0E0B1E0EEE4FBE102C0059031
:1000F0000D92A035B107D9F710E0C2E6D0E004C0F8
:100100002197FE010E94A20BC136D107C9F70E94B8
:10011000D0070C949A0D0C94000096E0899FD001B2
:100120001124A65FBD4F90967C936E935F9791E0EC
:1001300091969C939197E0917702F091780290913B
:100140007602992339F0309751F0811108C08091DF
:1001500026020994309719F05C968C91FACF089595
:10016000CF92DF92EF92FF920F931F9396E0899FB9
:10017000F0011124E65FFD4F11A2278D30A121303F
:10018000310551F178F02230310509F451C02330A6
:10019000310509F452C01F910F91FF90EF90DF904D
:1001A000CF9008956623B9F361E070E00E948D005E
:1001B0002FB7F8948091EE019091EF01A091F0019A
:1001C000B091F1012FBF8093620290936302A093DC
:1001D0006402B0936502DFCF9FB7F894C090EE0140
:1001E000D090EF01E090F001F090F1019FBF0091FD
:1001F0006202109163022091640230916502C01A7C
:10020000D10AE20AF30A009174021091750230E0FB
:1002100020E00C151D052E053F0550F462E070E04E
:100220001F910F91FF90EF90DF90CF900C948D0075
:100230006111B1CF63E070E0F3CF70E060E0F0CF28
:10024000AF92BF92CF92DF92EF92FF920F931F93E4
:10025000CF93DF936C017B018B01040F151FEB0122
:100260005E01AE18BF08C017D10759F06991D601D9
:10027000ED91FC910190F081E02DC6010995892B4B
:1002800079F7C501DF91CF911F910F91FF90EF900A
:10029000DF90CF90BF90AF900895833081F028F425
:1002A000813099F08230A9F008958730A9F0883024
:1002B000C9F08430B1F4809180008F7D03C08091BB
:1002C00080008F7780938000089584B58F7784BDF8
:1002D000089584B58F7DFBCF8091B0008F77809398
:1002E000B00008958091B0008F7DF9CFCF93DF9358
:1002F000282F30E0F901E255FF4F8491F901E656CD
:10030000FF4FD491F901EA57FF4FC491CC23A1F0DC
:1003100081110E944D01EC2FF0E0EE0FFF1FE45819
:10032000FF4FA591B491EC91ED2381E090E009F4A9
:1003300080E0DF91CF91089580E090E0FACF862FA2
:100340000C9476011F93CF93DF93282F30E0F901AF
:10035000E255FF4F8491F901E656FF4FD491F90120
:10036000EA57FF4FC491CC23A9F0162F81110E94A8
:100370004D01EC2FF0E0EE0FFF1FEE58FF4FA5915F
:10038000B4918FB7F894EC91111108C0D095DE2389
:10039000DC938FBFDF91CF911F910895DE2BF8CFB3
:1003A000862F642F0C94A201CF93DF9390E0FC0181
:1003B000E656FF4F24918A579F4FFC018491882372
:1003C000C9F090E0880F991FFC01E859FF4FA591F3
:1003D000B491FC01EE58FF4FC591D49161110DC04D
:1003E0009FB7F8948C91209582238C938881282341
:1003F00028839FBFDF91CF910895623051F49FB75A
:10040000F8943C91822F809583238C93E8812E2B46
:10041000EFCF8FB7F894EC912E2B2C938FBFEACFB0
:10042000862F642F0C94D4013FB7F8948091E60195
:100430009091E701A091E801B091E90126B5A89B50
:1004400005C02F3F19F00196A11DB11D3FBFBA2F66
:10045000A92F982F8827BC01CD01620F711D811D26
:10046000911D42E0660F771F881F991F4A95D1F7AB
:1004700008958F929F92AF92BF92CF92DF92EF92A8
:10048000FF924B015C010E9414026B017C010E94EF
:1004900014026C197D098E099F09683E734081051D
:1004A0009105A8F321E0821A9108A108B10888EE0D
:1004B000C80E83E0D81EE11CF11C81149104A10434
:1004C000B10429F7FF90EF90DF90CF90BF90AF90ED
:1004D0009F908F90089508951F93CF93DF93C1E06D
:1004E000C0935101882399F1D091B8001091BA00BE
:1004F0008091BC008A7B8093BC0060E082E10E9416
:10050000A20160E083E10E94A2011092BB01C093AE
:10051000BA011092950161E082E10E94A20161E0BE
:1005200083E10E94A2018091B9008E7F8093B9007F
:100530008091B9008D7F8093B90088E48093B800E2
:1005400085E48093BC001093BA00D093B800DF918B
:10055000CF911F91089520917201260F3327331FE9
:1005600021323105ECF42091BB01FC0190E080E0E8
:10057000243069F082E00895A09172012191AC01CC
:100580004E5A5E4FA40FB52FB11D2C9301968617BE
:1005900098F380917201680F6093720180E0089572
:1005A00081E0089508958FEF9FEF08958FEF9FEFFB
:1005B00008958091500190E0919581959109089559
:1005C000CF92DF92EF92FF920F931F93CF93DF931F
:1005D0007C01CB018A012091C101222389F0EB012A
:1005E0006B01C40ED51ECC15DD0569F06991D701EC
:1005F000ED91FC910190F081E02DC7010995F3CFB9
:10060000642F0E94AB02C801DF91CF911F910F911F
:10061000FF90EF90DF90CF900895CF93DF931F92DC
:10062000CDB7DEB769832091C1012223F9F0209173
:10063000E401203258F021E030E0FC0133832283D2
:1006400090E080E00F90DF91CF9108958091C201FA
:10065000E82FF0E0ED53FE4F998190838F5F8093F8
:10066000C2018093E40181E090E0ECCF61E0CE0133
:1006700001960E94AB02F7CFCF92DF92EF92FF92EA
:100680000F931F93CF93DF93FC01C48121E020934C
:10069000C101C093E3011092C2011092E40183856D
:1006A000682B82EF91E00E940D03D091E401D132DA
:1006B00008F092C00E9414026B017C018091BB0182
:1006C000811165C082E08093BB0181E08093BA0113
:1006D0008FEF8093B9011092B801D093B701A3ECCA
:1006E000B1E0E7E9F1E080E0D81385C0109296010F
:1006F00080919601CC0FC82BC093960180919501F3
:10070000813009F07CC0109295010E9414026B01A7
:100710007C01809196018093BB008091BD019091F6
:10072000BE01A091BF01B091C001892B8A2B8B2BF8
:1007300099F00E9414020091BD011091BE01209118
:10074000BF013091C0016C197D098E099F09061700
:10075000170728073907E0F18091BC0083FDD9CF46
:1007600085EC8093BC000E9414026B017C01809197
:10077000BB01823009F445C08091B9018F3F61F11E
:100780008091B901803241F18091B90125C08091F9
:10079000BD019091BE01A091BF01B091C001892B14
:1007A0008A2B8B2B09F48ACF0E9414020091BD0181
:1007B0001091BE012091BF013091C0016C197D09DB
:1007C0008E099F09061717072807390708F076CF03
:1007D0008091BC010E946C021092C2011092E4014F
:1007E0001092C101DF91CF911F910F91FF90EF9077
:1007F000DF90CF9008959D9191938F5F75CF85EE97
:10080000B0CF8091BD019091BE01A091BF01B09188
:10081000C001892B8A2B8B2B09F4A9CF0E941402CB
:100820000091BD011091BE012091BF013091C00126
:100830006C197D098E099F090617170728073907C4
:1008400008F095CFC5CF90E080E008950F931F93F7
:10085000CF938C01C62F0E943C036C2F6460C801AB
:100860000E943C036C2F6B7FC8010E943C0383EC09
:1008700090E00197F1F7CF911F910F9108950F9399
:100880001F93CF93DF938C01D62FC42F607F642BEF
:100890000E94260480E1D89FB00111246C2BC8016E
:1008A000DF91CF911F910F910C94260440E061E0FD
:1008B00089E792E00E943F048BE39FE10197F1F703
:1008C0000895CF93DF93CDB7DEB728970FB6F8948E
:1008D000DEBF0FBECDBF98E0EEE1F1E0DE01119684
:1008E00001900D929A95E1F790918102961708F484
:1008F0006FEF262F30E0220F331F41E050E04C0F06
:100900005D1F240F351FF9016081680F606840E0AA
:1009100089E792E028960FB6F894DEBF0FBECDBFF0
:10092000DF91CF910C943F0441E00E943F0481E0AD
:1009300090E008958F929F92AF92BF920F931F9372
:10094000CF93DF93CDB7DEB7A1970FB6F894DEBF94
:100950000FBECDBF19A2423008F44AE08E010F5DF0
:100960001F4F842E912CB12CA12CA50194010E9423
:100970006C0BE62FB901CA01EA3044F5E05DD801FD
:10098000EE938D01232B242B252B79F790E080E02B
:10099000109769F0FD0101900020E9F73197AF0150
:1009A0004A1B5B0BBD0189E792E00E942001A196E2
:1009B0000FB6F894DEBF0FBECDBFDF91CF911F9170
:1009C0000F91BF90AF909F908F900895E95CD7CF23
:1009D0000F931F93CF93DF93EC0188819981009748
:1009E00059F02A813B812617370730F081E0DF91EB
:1009F000CF911F910F9108958B016F5F7F4F0E94E0
:100A0000CD0C009759F0998388831B830A832C812E
:100A10003D81232B59F7FC011082E8CF80E0E7CF1E
:100A2000CF93DF93EC0188819981009711F00E94A8
:100A3000440C198218821D821C821B821A82DF914B
:100A4000CF910895EF92FF920F931F93CF93DF936F
:100A500000D0CDB7DEB78C0169831A82FC01E48037
:100A6000F580FFEFEF1AFF0AB7010E94E804882320
:100A7000C9F0F8012081318184819581BE016F5FC9
:100A80007F4F820F931F0E94930DF801F582E4823D
:100A9000C8010F900F90DF91CF911F910F91FF90A0
:100AA000EF900895C8010E941005F2CFEF92FF92D7
:100AB0000F931F93CF93DF93EC017B018A01BA015F
:100AC0000E94E80481110BC0CE010E941005CE01E6
:100AD000DF91CF911F910F91FF90EF9008951D83AB
:100AE0000C83B701888199810E94930DF0CFCF9339
:100AF000DF93EC01FB018617970749F06081718154
:100B00006115710541F0448155810E945605CE0161
:100B1000DF91CF9108950E941005F9CFFC018081EB
:100B20009181009711F00C94440C089585ED809309
:100B3000BC008091BD019091BE01A091BF01B09118
:100B4000C0010796A11DB11D23E0B695A795979505
:100B500087952A95D1F72091BC0024FD03C01092FF
:100B6000BB0108954091BD015091BE016091BF014C
:100B70007091C001452B462B472B69F30097A105C7
:100B8000B10541F025E32A95F1F700000197A1098D
:100B9000B109E1CF8091BC010C946C021F920F92BD
:100BA0000FB60F9211242F933F938F939F93AF9380
:100BB000BF938091EE019091EF01A091F001B0916F
:100BC000F1013091E50123E0230F2D3758F501960F
:100BD000A11DB11D2093E5018093EE019093EF01DB
:100BE000A093F001B093F1018091E6019091E701AB
:100BF000A091E801B091E9010196A11DB11D80937A
:100C0000E6019093E701A093E801B093E901BF9159
:100C1000AF919F918F913F912F910F900FBE0F90A9
:100C20001F90189526E8230F0296A11DB11DD2CF63
:100C30001F920F920FB60F9211242F933F934F9351
:100C40005F936F937F938F939F93AF93BF93EF9334
:100C5000FF938091B900887F803609F44AC0F0F58F
:100C6000883209F4A5C018F5803109F499C0B8F4A8
:100C7000882309F4F5C0883009F492C0FF91EF9100
:100C8000BF91AF919F918F917F916F915F914F91A4
:100C90003F912F910F900FBE0F901F9018958831A4
:100CA00009F486C0803251F78093B90114C08034B2
:100CB00009F49BC040F48033B9F38833F9F680938C
:100CC000B90185ECAEC0803509F483C0883509F4DC
:100CD00094C0883499F60E949605D0CF883909F4DB
:100CE0008AC038F5883729F050F4883611F08037FB
:100CF00029F683E08093BB011092940155C0883897
:100D000009F479C0803919F0803809F0B7CF8091A3
:100D10009401803208F06FC0E091940181E08E0F61
:100D2000809394018091BB00F0E0EC58FE4F8083EB
:100D30003BC0803B39F0D0F4803A09F477C0883A60
:100D400009F09CCF84E08093BB0110927301109254
:100D50007201F0E0E0E009958091720181110FC00D
:100D600081E0809372011092520109C0803C09F425
:100D7000A8CF883C09F4A5CF883B09F07FCFE0914C
:100D8000730181E08E0F80937301F0E0EE5AFE4F05
:100D900080818093BB00909173018091720129C082
:100DA000809196018093BB0085EC8093BC0066CF58
:100DB0009091B8018091B701981758F5E091B8016A
:100DC00081E08E0F8093B801F0E0E956FE4F8081FC
:100DD000E9CFE091B80181E08E0F8093B801809156
:100DE000BB00F0E0E956FE4F80839091B8018091FE
:100DF000B7019817C8F285E8D8CFE091B80181E033
:100E00008E0F8093B8018091BB00F0E0E956FE4F51
:100E100080838091BA0181115ECF81E0809395013A
:100E200084EA8093BC001092BB0128CF85EC8093AC
:100E3000BC001092BB0180919401803230F4E091AB
:100E40009401F0E0EC58FE4F10826091940170E044
:100E500084E791E0F0E0E0E00995109294010ECF74
:100E60001092B90138CF1092F5011092F40188EE7A
:100E700093E0A0E0B0E08093F6019093F701A09397
:100E8000F801B093F9018AE291E09093F301809325
:100E9000F20110927C0210927B0286E491E0909322
:100EA0007A028093790280E280937D0280E18093D0
:100EB000820282E0809383021092840210920C02DC
:100EC0001092100210920F02109211028CE391E026
:100ED00090930B0280930A02E6E2F2E01082148201
:100EE00013821582369682E0E236F807B9F784E07D
:100EF00091E090936D0280936C0280E091E090937A
:100F00006F0280936E0284E080937002809371027E
:100F100088E091E090936B0280936A028AE090E00F
:100F2000909373028093720284EF91E09093750224
:100F300080937402109278021092770210926602E7
:100F40001092670210926802109269021092760263
:100F500010920502109204021092070210920602EB
:100F6000109209021092080250E040E06EE471E035
:100F700084E092E00E9456051092FF011092FE015B
:100F800010920102109200021092030210920202CB
:100F900050E040E06EE471E08EEF91E00C94560575
:100FA000CF93DF9300D000D000D0CDB7DEB77894D8
:100FB00084B5826084BD84B5816084BD85B582605E
:100FC00085BD85B5816085BD80916E00816080930F
:100FD0006E00109281008091810082608093810078
:100FE0008091810081608093810080918000816088
:100FF000809380008091B10084608093B1008091E3
:10100000B00081608093B00080917A00846080930A
:101010007A0080917A00826080937A0080917A00D1
:10102000816080937A0080917A00806880937A0052
:101030001092C10080917E02886080937E0232E02F
:10104000F32EF092810262E370E080E090E00E9473
:1010500039026091840289E792E00E943C0368EEC5
:1010600073E080E090E00E94390260E389E792E05B
:101070000E9426040BE416E4C8010197F1F760E32F
:1010800089E792E00E942604C8010197F1F760E326
:1010900089E792E00E94260483E592E00197F1F748
:1010A00060E289E792E00E94260460917E0260621D
:1010B00040E089E792E00E943F0484E080937F0251
:1010C00040E06CE089E792E00E943F040E945604F1
:1010D000F092800240E066E089E792E00E943F04DF
:1010E00040E062E089E792E00E943F048BE39FE1E9
:1010F0000197F1F7412C512C3201439450E0A52E79
:1011000050E0B52E51E0509376028FB7F89440919D
:10111000EE015091EF016091F0017091F1018FBFEC
:101120008091660290916702A0916802B091690275
:10113000481B590B6A0B7B0B8091720290917302D2
:10114000B0E0A0E084179507A607B70708F012C122
:1011500010E080917002181760F4E0916C02F09139
:101160006D02E10FF11D62E080810E94D4011F5FDA
:10117000F0CF312C80917102381608F061C0E32C59
:10118000F12CE0916E02F0916F02EE0DFF1D61E017
:1011900080810E94D401E0916E02F0916F02EE0D09
:1011A000FF1D60E080810E94A201D301C201032CD7
:1011B00004C0880F991FAA1FBB1F0A94D2F74C01C5
:1011C0006C01C094D094212C80917002281608F5EF
:1011D000022D10E0E0916C02F0916D02E00FF11F22
:1011E00080810E9476010C5F1F4F000F111FF801D4
:1011F000E65FFD4F892B41F48081918188299929EF
:10120000918380832394E0CF808191818C219D21E3
:10121000F7CFE0916E02F0916F02EE0DFF1D61E0DD
:1012200080810E94A20180916E0290916F02E80E6F
:10123000F91E60E0F70180810E94D40133949ACFB7
:101240000AE012E07801F701878D90A1892B31F433
:10125000148E8FEF9FEF968F858F11A296E0E90E87
:10126000F11CE6E4EE16E2E0FE0669F7912C8091AF
:101270007002981608F053C0812CC92CD12CCC0CCC
:10128000DD1CC6018E5E9D4F6C012091710282169D
:1012900008F043C0F60160817181082C02C0769588
:1012A00067950A94E2F7929E90011124280D311D52
:1012B000EAE0F2E080E0458D568D2417350709F409
:1012C00049C18F5F36968A30B1F760FF24C0EAE0EB
:1012D000F2E090E080E0448D411118C0E0916A0294
:1012E000F0916B02E20FF31F408156E0589FF0012E
:1012F000599FF00D1124E65FFD4F448F368F258FE7
:1013000010A2178E61E00E94B00005C001963696CB
:101310008A30910501F78394B8CF9394A8CF80E0E9
:10132000F80191A19111892F0A5F1F4FE016F10674
:10133000B9F79FB7F8944091EE015091EF01609199
:10134000F0017091F1019FBF4093660250936702D4
:101350006093680270936902882361F080912B0288
:10136000882341F08091290290912A02109126024F
:10137000019719F01092760210E080ED810F8A300B
:1013800008F065C08091ED01811130C060E00E94DD
:1013900061041A8219821C821B821E821D8264E0F3
:1013A00072E0CE0101960E947705612FCE01019671
:1013B0000E942205BC0184E092E00E947705CE01E4
:1013C00001960E948E054091080250910902609199
:1013D00004027091050289E792E00E942001A114A5
:1013E000B10409F48FCE0E9400008CCE1A821982BB
:1013F0001C821B821E821D826EEF71E0CE0101965F
:101400000E947705612FCE0101960E942205BC0142
:101410008EEF91E00E947705CE0101960E948E0525
:101420008091080290910902813191056CF460E08D
:101430008F5F0E946104409102025091030260910B
:10144000FE017091FF01C7CF61E08F50F2CF1123F1
:1014500031F28091ED0181118AC086ED810F8230D9
:1014600028F0812F8D7F8D3209F0B9CFF1E0F09314
:10147000ED011093EC01809108029091090260E067
:101480008131910514F061E080510E94610441E0D6
:10149000612F89E792E00E943F04A1CF0E94E50AF4
:1014A0008B018091FE019091FF010097B1F10E94A4
:1014B000E50A9B014091EC01600F711F4B3209F46A
:1014C00044C04D3271F5021B130B1093EB010093D6
:1014D000EA010E94560460E080E00E946104C0902E
:1014E000EA01D090EB010D2C000CEE08FF084AE059
:1014F000C701B601F7FE0EC041E06DE289E792E058
:101500000E943F0466277727CB016C197D098E095D
:101510009F094AE00E949A0462CF60E070E0CB012C
:10152000C8CF4A3261F4029FC001039F900D129F01
:10153000900D11249093EB018093EA01CACF4F32B2
:1015400041F6C801B9010E94580B7093EB016093FA
:10155000EA01BFCF6170D7CE80910402909105025D
:10156000009709F09BCF60E070E0CB0199CF1D336D
:1015700099F3113409F033CF1092ED010E94560413
:1015800060E080E00E94610450E040E06EE471E0C1
:1015900084E092E00E94560550E040E06EE471E085
:1015A0008EEF91E00E9456058EE491E08093EC016D
:1015B0001092EB011092EA0112CF8EEF91E00E949F
:1015C0008E0584E092E00C948E051F93FC01992710
:1015D0008827BC01E89411911032E9F3193010F01A
:1015E0001E30C8F31B3251F01D3249F4689406C016
:1015F0000E940C0B610F711D811D911D11911053E3
:101600001A30B0F33EF490958095709561957F4FB8
:101610008F4F9F4F1F910895592F482F372F262FF7
:10162000660F771F881F991F660F771F881F991FE6
:10163000620F731F841F951F660F771F881F991FE6
:1016400008952F923F924F925F926F927F928F9266
:101650009F92AF92BF92CF92DF92EF92FF920F9341
:101660001F93CF93DF93CDB7DEB7CA1BDB0B0FB64B
:10167000F894DEBF0FBECDBF09942A883988488808
:101680005F846E847D848C849B84AA84B984C8849E
:10169000DF80EE80FD800C811B81AA81B981CE0F95
:1016A000D11D0FB6F894DEBF0FBECDBFED0108957A
:1016B00097FB072E16F4009407D077FD09D00E94FF
:1016C0008E0B07FC05D03EF4909581959F4F0895B1
:1016D000709561957F4F0895A1E21A2EAA1BBB1B3E
:1016E000FD010DC0AA1FBB1FEE1FFF1FA217B307EE
:1016F000E407F50720F0A21BB30BE40BF50B661F04
:10170000771F881F991F1A9469F7609570958095C7
:1017100090959B01AC01BD01CF010895AA1BBB1B95
:1017200051E107C0AA1FBB1FA617B70710F0A61BE1
:10173000B70B881F991F5A95A9F780959095BC0102
:10174000CD010895EE0FFF1F0590F491E02D09944F
:101750000F931F93CF93DF938230910510F482E0B3
:1017600090E0E0918702F091880230E020E0B0E064
:10177000A0E0309799F42115310509F44AC0281BDF
:10178000390B24303105D8F58A819B8161157105AB
:1017900089F1FB0193838283FE0111C04081518155
:1017A0000281138148175907E0F04817590799F447
:1017B000109761F012960C93129713961C93329621
:1017C000CF01DF91CF911F910F9108950093870270
:1017D00010938802F4CF2115310551F042175307B9
:1017E00038F0A901DB019A01BD01DF01F801C1CF89
:1017F000EF01F9CF9093880280938702CDCFFE014D
:10180000E20FF31F8193919322503109398328838A
:10181000D7CF2091850230918602232B41F420916D
:101820001A0130911B01309386022093850220918A
:101830001801309119012115310541F42DB73EB73A
:1018400040911C0150911D01241B350BE091850234
:10185000F0918602E217F307A0F42E1B3F0B281726
:10186000390778F0AC014E5F5F4F2417350748F019
:101870004E0F5F1F50938602409385028193919390
:101880009FCFF0E0E0E09CCFCF93DF930097E9F0AB
:10189000FC01329713821282A0918702B0918802D4
:1018A000ED0130E020E01097A1F420813181820F1A
:1018B000931F20918502309186022817390709F07D
:1018C00061C0F0938602E0938502DF91CF91089585
:1018D000EA01CE17DF07E8F54A815B819E014115D9
:1018E0005105B1F7E901FB83EA8349915991C40F8E
:1018F000D51FEC17FD0761F4808191810296840F5A
:10190000951FE90199838883828193819B838A83D0
:10191000F0E0E0E012968D919C9113970097B9F555
:101920002D913C911197CD010296820F931F20912A
:101930008502309186022817390739F6309751F51C
:101940001092880210928702B0938602A0938502BB
:10195000BCCFD383C28340815181840F951FC817A8
:10196000D90761F44E5F5F4F88819981480F591FF5
:10197000518340838A819B81938382832115310522
:1019800009F0B0CFF0938802E09387029ECFFD016B
:10199000DC01C0CF13821282D7CFB0E0A0E0E3ED2C
:1019A000FCE00C94230B8C01009751F4CB010E94B6
:1019B000A80B8C01C801CDB7DEB7E0E10C943F0B5A
:1019C000FC01E60FF71F9C0122503109E217F307D3
:1019D00008F49DC0D901CD91DC911197C617D707A6
:1019E00098F0C530D10530F3CE01049786179707DC
:1019F00008F3C61BD70B2297C193D1936D937C93A9
:101A0000CF010E94440CD6CF5B01AC1ABD0A4C0139
:101A10008C0E9D1EA0918702B0918802512C412C02
:101A2000F12CE12C109731F580918502909186027E
:101A30008815990509F05CC04616570608F058C08D
:101A40008091180190911901009741F48DB79EB7CC
:101A500040911C0150911D01841B950BE817F9075B
:101A600008F055C0F0938602E0938502F901718376
:101A70006083A0CF8D919C91119712966C901297D4
:101A800013967C901397A815B90559F56C0142E09F
:101A9000C40ED11CCA14DB0420F1AC014A195B0945
:101AA000DA011296159780F0628273825183408327
:101AB000D9016D937C93E114F10471F0D701139671
:101AC000FC93EE93129776CF22968C0F9D1FF9010F
:101AD00091838083F301EFCFF0938802E093870234
:101AE00069CF4816590608F42C017D01D3019ACF1D
:101AF000CB010E94A80B7C01009749F0AE01B80110
:101B00000E948A0DC8010E94440C870153CF10E047
:101B100000E050CFFB01DC0102C001900D9241506A
:101B20005040D8F70895FB01DC0101900D92002090
:101B3000E1F7089510E0C2E6D0E004C0FE010E9483
:0E1B4000A20B2196C336D107C9F7F894FFCF48
:101B4E0005040302090807060738392F3435362AEB
:101B5E003132332D41303D2B0000890280000000D0
:101B6E00400014005400000000000D03E0022304A6
:101B7E00D202D902D602D302000000001002D00118
:101B8E009F01000000009404200123046B0200005A
:00000001FF
