S011000070776D2074657374322E73726563AD
S11300000C942A000C9434000C9434000C943400A6
S11300100C9434000C9434000C9434000C9434008C
S11300200C9434000C9434000C9434000C9434007C
S11300300C9434000C9434000C9434000C9434006C
S11300400C9434000C9434000C9434000C9434005C
S11300500C94340011241FBECFE5D8E0DEBFCDBF21
S11300600E943F000C9444000C94000083B78966FE
S113007083BF87B3886187BB80E188BB08950E94F2
S10F0080360081E08CBFFDCFF894FFCF68
S9030000FC
