:100000000C942A000C943F000C943F000C943F0089
:100010000C943F000C943F000C943F000C943F0064
:100020000C943F000C943F000C943F000C943F0054
:100030000C943F000C943F000C943F000C943F0044
:100040000C943F000C943F000C943F000C943F0034
:100050000C943F0011241FBECFE5D8E0DEBFCDBF1A
:1000600010E0A0E6B0E0ECE4F4E002C005900D92F0
:10007000A638B107D9F70E9426010C9424020C94EB
:10008000000080EF8ABB80E18BBBC89925C0C9996D
:1000900025C0CA9925C0CB9925C080E28BBBC899E1
:1000A00023C0C99923C0CA9923C0CB9923C080E437
:1000B0008BBBC89921C0C99921C0CA9921C0CB99CD
:1000C00021C080E88BBBC8991FC0C9991FC0CA99BD
:1000D0001FC0CB991FC0089587E3089588E3089552
:1000E00089E308958FE2089584E3089585E30895F0
:1000F00086E308958AE2089581E3089582E30895EE
:1001000083E308958DE2089583E4089580E30895DC
:100110008DE308958BE2089598B39F70282F207F78
:10012000922B98BB98B39E7F98BB98B3926098BB74
:1001300032E03A95F1F700C098B39D7F98BBEFE8A5
:10014000F1E03197F1F700C0000028B3F0E18F9F94
:10015000C0011124922F9F70892B88BB88B38260C5
:1001600088BB32E03A95F1F700C088B38D7F88BB39
:100170008FE99FE00197F1F700C00000089598B360
:100180009F70282F207F922B98BB98B3916098BBCB
:1001900098B3926098BB32E03A95F1F700C098B3FB
:1001A0009D7F98BBEFE8F1E03197F1F700C00000C8
:1001B00028B3F0E18F9FC0011124922F9F70892BEB
:1001C00088BB88B3826088BB32E03A95F1F700C003
:1001D00088B38D7F88BB8FE99FE00197F1F700C05E
:1001E000000008958FEF87BB8FE39CE90197F1F73B
:1001F00000C0000082E00E948C0088E20E948C0017
:100200008CE00E948C0086E00E948C0081E00E94BD
:100210008C008FE99FE00197F1F700C0000008957E
:100220000F931F93CF93DF938C01C0E0D0E003C006
:100230000E94BF002196F801EC0FFD1F8081811103
:10024000F7CFDF91CF911F910F9108958FEF84BB6E
:1002500015BA0E94F20080E690E00E9410010E9410
:100260004100C82F813369F485E690E00E941001B7
:100270002FE788E391E0215080409040E1F700C0F3
:100280000000C23369F487E690E00E9410012FE776
:1002900088E391E0215080409040E1F700C00000E9
:1002A000C33369F489E690E00E9410012FE788E3E8
:1002B00091E0215080409040E1F700C00000C4333D
:1002C00069F48BE690E00E9410012FE788E391E04B
:1002D000215080409040E1F700C00000C53369F430
:1002E0008DE690E00E9410012FE788E391E0215015
:1002F00080409040E1F700C00000C63369F48FE60B
:1003000090E00E9410012FE788E391E021508040A7
:100310009040E1F700C00000C73369F481E790E046
:100320000E9410012FE788E391E021508040904027
:10033000E1F700C00000C83369F483E790E00E9451
:1003400010012FE788E391E0215080409040E1F7D1
:1003500000C00000C93369F485E790E00E941001F5
:100360002FE788E391E0215080409040E1F700C002
:100370000000C03369F487E790E00E9410012FE786
:1003800088E391E0215080409040E1F700C00000F8
:10039000C33269F489E790E00E9410012FE788E3F7
:1003A00091E0215080409040E1F700C00000CF3242
:1003B00069F48BE790E00E9410012FE788E391E059
:1003C000215080409040E1F700C00000CB3269F43A
:1003D0008DE790E00E9410012FE788E391E0215023
:1003E00080409040E1F700C00000CA3269F48FE716
:1003F00090E00E9410012FE788E391E021508040B7
:100400009040E1F700C00000C33469F481E890E057
:100410000E9410012FE788E391E021508040904036
:10042000E1F700C00000CD3309F019CF83E890E078
:100430000E9410012FE788E391E021508040904016
:0C044000E1F700C000000BCFF894FFCFE4
:10044C006C616B61003100320033003400350036D2
:10045C0000370038003900300023002F002B002A11
:06046C000043003D00000A
:00000001FF
