:100000000C942A000C943F000C943F000C943F0089
:100010000C943F000C943F000C943F000C943F0064
:100020000C943F000C943F000C943F000C943F0054
:100030000C943F000C943F000C943F000C943F0044
:100040000C943F000C943F000C943F000C943F0034
:100050000C943F0011241FBECFE5D8E0DEBFCDBF1A
:1000600010E0A0E6B0E0E0E7F4E002C005900D92F9
:10007000A639B107D9F70E943B010C9436020C94C3
:10008000000092B3282F22952F70907F922B92BB65
:1000900095B39E7F95BB95B3926095BB92E09A9580
:1000A000F1F700C095B39D7F95BBEFE8F1E0319784
:1000B000F1F700C0000092B3907F8F70892B82BB54
:1000C00085B3826085BBF2E0FA95F1F700C085B395
:1000D0008D7F85BB8FE99FE00197F1F700C000009D
:1000E000089592B3282F22952F70907F922B92BB68
:1000F00095B3916095BB95B3926095BB92E09A954C
:10010000F1F700C095B39D7F95BBEFE8F1E0319723
:10011000F1F700C0000092B3907F8F70892B82BBF3
:1001200085B3826085BBF2E0FA95F1F700C085B334
:100130008D7F85BB8FE99FE00197F1F700C000003C
:10014000089584B3836084BB81B38F6081BB8FE3E8
:100150009CE90197F1F700C0000082E00E94410095
:1001600088E20E9441008CE00E94410086E00E94EB
:10017000410081E00E9441008FE99FE00197F1F783
:1001800000C0000008950F931F93CF93DF938C015D
:10019000C0E0D0E003C00E9471002196F801EC0F8E
:1001A000FD1F80818111F7CFDF91CF911F910F91BA
:1001B0000895CF93DF93CDB7DEB760970FB6F8946D
:1001C000DEBF0FBECDBF80E1E0E6F0E0DE011196BC
:1001D00001900D928A95E1F78AB3807F8ABB8BB339
:1001E0008F608BBB87B38F6087BB88B38F6088BB02
:1001F00040E050E034C028B381E090E0042E02C01B
:10020000880F991F0A94E2F78095822388BB20E02B
:1002100030E01DC089B390E080959095022E02C019
:10022000959587950A94E2F780FF0FC0440F551FFC
:10023000440F551F81E090E08C0F9D1F480F591F00
:10024000FA01E20FF31F80810DC02F5F3F4F243072
:10025000310504F388B38F6088BB4F5F5F4F443034
:1002600051054CF260960FB6F894DEBF0FBECDBFBD
:10027000DF91CF9108950E94A10080E790E00E9455
:10028000C3000E94D900C82F813369F485E790E04C
:100290000E94C3002FE788E391E021508040904006
:1002A000E1F700C00000C23369F487E790E00E94E4
:1002B000C3002FE788E391E0215080409040E1F7B0
:1002C00000C00000C33369F489E790E00E94C300D6
:1002D0002FE788E391E0215080409040E1F700C093
:1002E0000000C43369F48BE790E00E94C3002FE75D
:1002F00088E391E0215080409040E1F700C0000089
:10030000C53369F48DE790E00E94C3002FE788E3CE
:1003100091E0215080409040E1F700C00000C633DA
:1003200069F48FE790E00E94C3002FE788E391E033
:10033000215080409040E1F700C00000C73369F4CD
:1003400081E890E00E94C3002FE788E391E021500C
:1003500080409040E1F700C00000C83369F483E8B2
:1003600090E00E94C3002FE788E391E02150804095
:100370009040E1F700C00000C93369F485E890E0DF
:100380000E94C3002FE788E391E021508040904015
:10039000E1F700C00000C03369F487E890E00E94F4
:1003A000C3002FE788E391E0215080409040E1F7BF
:1003B00000C00000C13469F489E890E00E94C300E5
:1003C0002FE788E391E0215080409040E1F700C0A2
:1003D0000000C23469F48BE890E00E94C3002FE76C
:1003E00088E391E0215080409040E1F700C0000098
:1003F000C33469F48DE890E00E94C3002FE788E3DE
:1004000091E0215080409040E1F700C00000C434EA
:1004100069F48FE890E00E94C3002FE788E391E041
:10042000215080409040E1F700C00000CA3269F4DA
:1004300081E990E00E94C3002FE788E391E021501A
:1004400080409040E1F700C00000C33209F019CFAE
:1004500083E990E00E94C3002FE788E391E02150F8
:1004600080409040E1F700C000000BCFF894FFCF30
:100470003132334134353642373839432A30234418
:100480007479706500310032003300340035003675
:10049000003700380039003000410042004300447A
:0604A000002A0023000009
:00000001FF
