:100000000C942A000C943F000C943F000C943F0089
:100010000C943F000C943F000C943F000C943F0064
:100020000C943F000C943F000C943F000C943F0054
:100030000C943F000C943F000C943F000C943F0044
:100040000C943F000C943F000C943F000C943F0034
:100050000C943F0011241FBECFE5D8E0DEBFCDBF1A
:1000600010E0A0E6B0E0ECE3F2E002C005900D92F3
:10007000AE36B107D9F70E9404010C941C010C9410
:10008000000098B39F70282F207F922B98BB98B3C5
:100090009E7F98BB98B3926098BB32E03A95F1F797
:1000A00000C098B39D7F98BBEFE8F1E03197F1F77E
:1000B00000C0000028B3F0E18F9FC0011124922FEF
:1000C0009F70892B88BB88B3826088BB32E03A95E9
:1000D000F1F700C088B38D7F88BB8FE99FE001975F
:1000E000F1F700C00000089598B39F70282F207F7B
:1000F000922B98BB98B3916098BB98B3926098BBD1
:1001000032E03A95F1F700C098B39D7F98BBEFE8D5
:10011000F1E03197F1F700C0000028B3F0E18F9FC4
:10012000C0011124922F9F70892B88BB88B38260F5
:1001300088BB32E03A95F1F700C088B38D7F88BB69
:100140008FE99FE00197F1F700C0000008958FEF5D
:1001500087BB8FE39CE90197F1F700C0000082E0C4
:100160000E94410088E20E9441008CE00E94410010
:1001700086E00E94410081E00E9441008FE99FE0FB
:100180000197F1F700C0000008950F931F93CF93DC
:10019000DF938C01C0E0D0E003C00E947400219680
:1001A000F801EC0FFD1F80818111F7CFDF91CF9116
:1001B0001F910F910895CF93DF93EA01811108C039
:1001C000603130F4862F8F7080680E94410009C032
:1001D000813039F4603128F4862F8F70806C0E9452
:1001E0004100CE010E94C500DF91CF91089581E0CA
:1001F0000E9441008FE99FE00197F1F700C00000E5
:1002000080E80E94410008950E94A70080E690E0E7
:100210000E94C50048E650E065E081E00E94DB00F6
:100220002FEF80E792E0215080409040E1F700C03E
:0C02300000000E94F700FFCFF894FFCF01
:0E023C006C616B7368616E006E696D756500B4
:00000001FF
