S00B000070776D2E73726563C5
S11300000C942A000C9434000C9434000C943400A6
S11300100C9434000C9434000C9434000C9434008C
S11300200C9434000C9434000C9434000C9434007C
S11300300C9434000C9434000C9434000C9434006C
S11300400C9434000C9434000C9434000C9434005C
S11300500C94340011241FBECFE5D8E0DEBFCDBF21
S11300600E9441000C944C000C94000081B3806BFE
S113007081BB85B5896685BD81EA8FBD89E08EBD6A
S113008008950E9436008FEF83BD8FEF90E09BBDF3
S10F00908ABD99BD88BDF7CFF894FFCF5E
S9030000FC
