S0110000616E6C6F67726561642E7372656366
S11300000C942A000C9434000C9434000C943400A6
S11300100C9434000C9434000C9434000C9434008C
S11300200C9434000C9434000C9434000C9434007C
S11300300C9434000C9434000C9434000C9434006C
S11300400C9434000C9434000C9434000C9434005C
S11300500C94340011241FBECFE5D8E0DEBFCDBF21
S11300600E94EB000C945B010C94000092B3282FC7
S113007022952F70907F922B92BB95B39E7F95BB58
S113008095B3926095BB92E09A95F1F700C095B351
S11300909D7F95BBEFE8F1E03197F1F700C00000D8
S11300A092B3907F8F70892B82BB85B3826085BBAE
S11300B0F2E0FA95F1F700C085B38D7F85BB8FE937
S11300C09FE00197F1F700C00000089592B3282F34
S11300D022952F70907F922B92BB95B3916095BB24
S11300E095B3926095BB92E09A95F1F700C095B3F1
S11300F09D7F95BBEFE8F1E03197F1F700C0000078
S113010092B3907F8F70892B82BB85B3826085BB4D
S1130110F2E0FA95F1F700C085B38D7F85BB8FE9D6
S11301209FE00197F1F700C00000089584B3836055
S113013084BB81B38F6081BB8FE39CE90197F1F7A6
S113014000C0000082E00E94360088E20E9436006F
S11301508CE00E94360086E00E94360081E00E9416
S113016036008FE99FE00197F1F700C00000089581
S11301700F931F93CF93DF938C01C0E0D0E003C0B3
S11301800E9466002196F801EC0FFD1F8081811109
S1130190F7CFDF91CF911F910F91089581E00E94D5
S11301A036008FE99FE00197F1F700C0000080E876
S11301B00E943600089587E487B986E886B90895D1
S11301C087B1876087B986B1806486B93699FECFD6
S11301D084B195B10895CF93DF93CDB7DEB72A9755
S11301E00FB6F894DEBF0FBECDBF0E94DB000E94A5
S11301F096002FE788E391E0215080409040E1F79A
S113020000C000000E94E0004AE050E0BE016F5FC1
S11302107F4F0E941B01CE0101960E94B8002FE778
S113022088E391E0215080409040E1F700C0000055
S11302300E94CE00E7CF4532510520F4423010F041
S11302400C942601FB011082CB010895BB274A3090
S113025031F4992322F4BDE2909581959F4F0C943B
S11302603201BB27FB015527AA27880F991FAA1F14
S1130270A41710F0A41B83955051B9F7A05DAA33BD
S113028008F0A95DA193009779F7B111B193119288
S1130290CB010C944B01DC01FC01672F7191772396
S11302A0E1F7329704C07C916D9370836291AE172D
S10D02B0BF07C8F30895F894FFCFC8
S9030000FC
