S00F000070776D2070696E2E737265635A
S11300000C942A000C9434000C9434000C943400A6
S11300100C9434000C9434000C9434000C9434008C
S11300200C9434000C9434000C9434000C9434007C
S11300300C9434000C9434000C9434000C9434006C
S11300400C9434000C9434000C9434000C9434005C
S11300500C94340011241FBECFE5D8E0DEBFCDBF21
S11300600E9447000C9452000C94000081B3806BF2
S113007081BB85B5896685BD81EA8FBD89E08EBD6A
S1130080089583BD7BBD6ABD59BD48BD08950E94D6
S113009036004FEF50E06FEF70E08FEF90E00E947A
S10B00A04100F7CFF894FFCFF3
S9030000FC
