:100000000C9458000C9480000C9480000C94800098
:100010000C9480000C9480000C9480000C94800060
:100020000C9480000C9480000C9480000C94800050
:100030000C9480000C9480000C9480000C94800040
:100040000C947B030C9480000C9480000C94800032
:100050000C9480000C9480000C9480000C94800020
:100060000C94C5030C9480000000000025002800BB
:100070002B00040404040404040402020202020229
:10008000030303030303010204081020408001025C
:1000900004081020010204081020000000080002DB
:1000A0000100000304070000000000000000E0045D
:1000B00011241FBECFEFD8E0DEBFCDBF11E0A0E01E
:1000C000B1E0EAE8FBE002C005900D92A832B1076A
:1000D000D9F721E0A8E2B1E001C01D92AE3DB20720
:1000E000E1F710E0C8E5D0E004C02197FE010E94CE
:1000F000BD05C735D107C9F70E9400050C94C3059B
:100100000C940000AF92BF92CF92DF92EF92FF92D9
:100110000F931F93CF93DF936C017B018B01040F2F
:10012000151FEB015E01AE18BF08C017D10759F0CB
:100130006991D601ED91FC910190F081E02DC6010D
:100140000995892B79F7C501DF91CF911F910F9107
:10015000FF90EF90DF90CF90BF90AF90089590E028
:10016000FC01E656FF4F2491FC01EA57FF4F349102
:10017000FC01EE58FF4FE491EE23C9F0222339F041
:10018000233001F1A8F4213019F1223029F1F0E0F7
:10019000EE0FFF1FE859FF4FA591B4918FB7F89468
:1001A000EC91611126C030953E233C938FBF08959A
:1001B0002730A9F02830C9F0243049F78091800019
:1001C0008F7D03C0809180008F7780938000DFCF88
:1001D00084B58F7784BDDBCF84B58F7DFBCF8091D5
:1001E000B0008F778093B000D2CF8091B0008F7D28
:1001F000F9CF3E2BDACF3FB7F8948091C2019091AE
:10020000C301A091C401B091C50126B5A89B05C04A
:100210002F3F19F00196A11DB11D3FBFBA2FA92F85
:10022000982F8827BC01CD01620F711D811D911D82
:1002300042E0660F771F881F991F4A95D1F70895EE
:100240008F929F92AF92BF92CF92DF92EF92FF92E6
:100250004B015C010E94FB006B017C010E94FB00D2
:100260006C197D098E099F09683E734081059105CF
:10027000A8F321E0821A9108A108B10888EEC80EFF
:1002800083E0D81EE11CF11C81149104A104B10487
:1002900029F7FF90EF90DF90CF90BF90AF909F90A5
:1002A0008F90089508951F93CF93DF93C1E0C0937B
:1002B0002901882399F1D091B8001091BA0080915A
:1002C000BC008A7B8093BC0060E082E10E94AF00AA
:1002D00060E083E10E94AF0010929301C09392010D
:1002E00010926D0161E082E10E94AF0061E083E164
:1002F0000E94AF008091B9008E7F8093B9008091F9
:10030000B9008D7F8093B90088E48093B80085E4BC
:100310008093BC001093BA00D093B800DF91CF91C6
:100320001F91089520914A01260F3327331F213250
:100330003105ECF420919301FC0190E080E0243041
:1003400069F082E00895A0914A012191AC01465DD7
:100350005E4FA40FB52FB11D2C930196861798F30D
:1003600080914A01680F60934A0180E0089581E01E
:10037000089508958FEF9FEF08958FEF9FEF0895F1
:100380008091280190E09195819591090895CF92EF
:10039000DF92EF92FF920F931F93CF93DF937C0135
:1003A000CB018A0120919901222389F0EB016B0195
:1003B000C40ED51ECC15DD0569F06991D701ED910C
:1003C000FC910190F081E02DC7010995F3CF642FD6
:1003D0000E949201C801DF91CF911F910F91FF9070
:1003E000EF90DF90CF900895CF93DF931F92CDB71A
:1003F000DEB76983209199012223F9F02091BC0195
:10040000203258F021E030E0FC013383228390E079
:1004100080E00F90DF91CF91089580919A01E82FAD
:10042000F0E0E556FE4F998190838F5F80939A01AB
:100430008093BC0181E090E0ECCF61E0CE010196B9
:100440000E949201F7CFCF92DF92EF92FF920F932B
:100450001F93CF93DF93FC01C48121E02093990186
:10046000C093BB0110929A011092BC018385682B46
:1004700086EC91E00E94F401D091BC01D13208F0E9
:1004800092C00E94FB006B017C018091930181115D
:1004900065C082E08093930181E0809392018FEFA9
:1004A0008093910110929001D0938F01ABE9B1E05C
:1004B000EFE6F1E080E0D81385C010926E018091E4
:1004C0006E01CC0FC82BC0936E0180916D018130FD
:1004D00009F07CC010926D010E94FB006B017C0151
:1004E00080916E018093BB0080919501909196015F
:1004F000A0919701B0919801892B8A2B8B2B99F0B1
:100500000E94FB00009195011091960120919701A6
:10051000309198016C197D098E099F0906171707FC
:1005200028073907E0F18091BC0083FDD9CF85EC25
:100530008093BC000E94FB006B017C0180919301C1
:10054000823009F445C0809191018F3F61F1809123
:100550009101803241F18091910125C080919501F6
:1005600090919601A0919701B0919801892B8A2BC7
:100570008B2B09F48ACF0E94FB000091950110910A
:10058000960120919701309198016C197D098E098F
:100590009F09061717072807390708F076CF8091BB
:1005A00094010E94530110929A011092BC01109282
:1005B0009901DF91CF911F910F91FF90EF90DF9004
:1005C000CF9008959D9191938F5F75CF85EEB0CFB9
:1005D0008091950190919601A0919701B091980119
:1005E000892B8A2B8B2B09F4A9CF0E94FB00009149
:1005F00095011091960120919701309198016C1905
:100600007D098E099F09061717072807390708F083
:1006100095CFC5CF90E080E008950F931F93CF93BF
:100620008C01C62F0E9423026C2F6460C8010E94B7
:1006300023026C2F6B7FC8010E94230283EC90E0A1
:100640000197F1F7CF911F910F9108950F931F9389
:10065000CF93DF938C01D62FC42F607F642B0E9431
:100660000D0380E1D89FB00111246C2BC801DF91EC
:10067000CF911F910F910C940D0341E00E9426032E
:1006800081E090E0089585ED8093BC008091950114
:1006900090919601A0919701B09198010796A11DA4
:1006A000B11D23E0B695A795979587952A95D1F723
:1006B0002091BC0024FD03C0109293010895409145
:1006C0009501509196016091970170919801452B89
:1006D000462B472B69F30097A105B10541F025E3AF
:1006E0002A95F1F700000197A109B109E1CF8091A6
:1006F00094010C9453011F920F920FB60F92112484
:100700002F933F938F939F93AF93BF938091BE019D
:100710009091BF01A091C001B091C1013091BD0184
:1007200023E0230F2D3758F50196A11DB11D20930D
:10073000BD018093BE019093BF01A093C001B0930F
:10074000C1018091C2019091C301A091C401B091F7
:10075000C5010196A11DB11D8093C2019093C301F3
:10076000A093C401B093C501BF91AF919F918F91A8
:100770003F912F910F900FBE0F901F90189526E874
:10078000230F0296A11DB11DD2CF1F920F920FB65B
:100790000F9211242F933F934F935F936F937F9307
:1007A0008F939F93AF93BF93EF93FF938091B90083
:1007B000887F803609F44AC0F0F5883209F4A5C074
:1007C00018F5803109F499C0B8F4882309F4F5C00C
:1007D000883009F492C0FF91EF91BF91AF919F9142
:1007E0008F917F916F915F914F913F912F910F90DA
:1007F0000FBE0F901F901895883109F486C0803283
:1008000051F78093910114C0803409F49BC040F4E7
:100810008033B9F38833F9F68093910185ECAEC04B
:10082000803509F483C0883509F494C0883499F67A
:100830000E944303D0CF883909F48AC038F588373D
:1008400029F050F4883611F0803729F683E0809340
:10085000930110926C0155C0883809F479C0803931
:1008600019F0803809F0B7CF80916C01803208F020
:100870006FC0E0916C0181E08E0F80936C018091DC
:10088000BB00F0E0E45BFE4F80833BC0803B39F06F
:10089000D0F4803A09F477C0883A09F09CCF84E01C
:1008A0008093930110924B0110924A01F0E0E0E036
:1008B000099580914A0181110FC081E080934A011E
:1008C00010922A0109C0803C09F4A8CF883C09F4A1
:1008D000A5CF883B09F07FCFE0914B0181E08E0FDF
:1008E00080934B01F0E0E65DFE4F80818093BB007A
:1008F00090914B0180914A0129C080916E018093B3
:10090000BB0085EC8093BC0066CF909190018091F4
:100910008F01981758F5E091900181E08E0F809338
:100920009001F0E0E159FE4F8081E9CFE091900124
:1009300081E08E0F809390018091BB00F0E0E1593F
:10094000FE4F80839091900180918F019817C8F29B
:1009500085E8D8CFE091900181E08E0F80939001DF
:100960008091BB00F0E0E159FE4F808380919201BD
:1009700081115ECF81E080936D0184EA8093BC0099
:100980001092930128CF85EC8093BC0010929301C4
:1009900080916C01803230F4E0916C01F0E0E45B16
:1009A000FE4F108260916C0170E08CE491E0F0E009
:1009B000E0E0099510926C010ECF1092910138CFB2
:1009C000E6ECF1E01382128288EE93E0A0E0B0E062
:1009D00084839583A683B78384E091E091838083A9
:1009E000E2EDF1E01382128286E191E0918380834F
:1009F00080E2848380E1818782E082871386089584
:100A0000789484B5826084BD84B5816084BD85B5E9
:100A1000826085BD85B5816085BD80916E008160F5
:100A200080936E001092810080918100826080939B
:100A3000810080918100816080938100809180009D
:100A40008160809380008091B10084608093B100C8
:100A50008091B00081608093B00080917A008460C2
:100A600080937A0080917A00826080937A008091EE
:100A70007A00816080937A0080917A008068809308
:100A80007A001092C1008091D70188608093D701CD
:100A900012E01093DA0162E370E080E090E00E94DF
:100AA00020016091DD0182ED91E00E94230268EE59
:100AB00073E080E090E00E94200160E382ED91E02D
:100AC0000E940D03CBE4D6E4CE010197F1F760E379
:100AD00082ED91E00E940D032197F1F760E382ED32
:100AE00091E00E940D0383E592E00197F1F760E247
:100AF00082ED91E00E940D036091D701606240E0B9
:100B000082ED91E00E94260384E08093D80140E0CA
:100B10006CE082ED91E00E94260340E061E082ED0E
:100B200091E00E942603CBE3DFE1CE010197F1F7CC
:100B30001093D90140E066E082ED91E00E94260327
:100B400040E062E082ED91E00E9426032197F1F7F8
:100B500040E064E882ED91E00E94260348E050E026
:100B60006EE171E082ED91E00E948200C0E0D0E091
:100B70002097F1F30E940000FBCFEE0FFF1F0590BE
:0A0B8000F491E02D0994F894FFCFE2
:100B8A0000000000F401C7010A03B901C001BD0158
:100B9A00BA01000000003D0382000A0352014861C5
:080BAA00636B737465720000B7
:107E0000112484B714BE81FFF0D085E080938100F7
:107E100082E08093C00088E18093C10086E0809377
:107E2000C20080E18093C4008EE0C9D0259A86E02C
:107E300020E33CEF91E0309385002093840096BBD3
:107E4000B09BFECF1D9AA8958150A9F7CC24DD24C4
:107E500088248394B5E0AB2EA1E19A2EF3E0BF2EE7
:107E6000A2D0813461F49FD0082FAFD0023811F036
:107E7000013811F484E001C083E08DD089C08234E0
:107E800011F484E103C0853419F485E0A6D080C0E4
:107E9000853579F488D0E82EFF2485D0082F10E0AE
:107EA000102F00270E291F29000F111F8ED06801E7
:107EB0006FC0863521F484E090D080E0DECF843638
:107EC00009F040C070D06FD0082F6DD080E0C81688
:107ED00080E7D80618F4F601B7BEE895C0E0D1E017
:107EE00062D089930C17E1F7F0E0CF16F0E7DF06D8
:107EF00018F0F601B7BEE89568D007B600FCFDCFD4
:107F0000A601A0E0B1E02C9130E011968C91119780
:107F100090E0982F8827822B932B1296FA010C0160
:107F200087BEE89511244E5F5F4FF1E0A038BF0790
:107F300051F7F601A7BEE89507B600FCFDCF97BE46
:107F4000E89526C08437B1F42ED02DD0F82E2BD052
:107F50003CD0F601EF2C8F010F5F1F4F84911BD097
:107F6000EA94F801C1F70894C11CD11CFA94CF0C13
:107F7000D11C0EC0853739F428D08EE10CD085E9AC
:107F80000AD08FE07ACF813511F488E018D01DD067
:107F900080E101D065CF982F8091C00085FFFCCF94
:107FA0009093C60008958091C00087FFFCCF809118
:107FB000C00084FD01C0A8958091C6000895E0E648
:107FC000F0E098E1908380830895EDDF803219F02E
:107FD00088E0F5DFFFCF84E1DECF1F93182FE3DFCA
:107FE0001150E9F7F2DF1F91089580E0E8DFEE27F6
:047FF000FF270994CA
:027FFE00040479
:0400000300007E007B
:00000001FF
