:100000000C942A000C943F000C943F000C943F0089
:100010000C943F000C943F000C943F000C943F0064
:100020000C943F000C943F000C943F000C943F0054
:100030000C943F000C943F000C943F000C943F0044
:100040000C943F000C943F000C943F000C943F0034
:100050000C943F0011241FBECFE5D8E0DEBFCDBF1A
:1000600010E0A0E6B0E0EAEAF1E002C005900D92EF
:10007000A037B107D9F70E94A3000C94D3000C94C9
:100080000000CF93DF93CDB7DEB760970FB6F8943B
:10009000DEBF0FBECDBF80E1E0E6F0E0DE011196ED
:1000A00001900D928A95E1F78AB3807F8ABB8BB36A
:1000B0008F608BBB87B38F6087BB88B38F6088BB33
:1000C00040E050E034C028B381E090E0042E02C04C
:1000D000880F991F0A94E2F78095822388BB20E05D
:1000E00030E01DC089B390E080959095022E02C04B
:1000F000959587950A94E2F780FF0FC0440F551F2E
:10010000440F551F81E090E08C0F9D1F480F591F31
:10011000FA01E20FF31F80810DC02F5F3F4F2430A3
:10012000310504F388B38F6088BB4F5F5F4F443065
:1001300051054CF260960FB6F894DEBF0FBECDBFEE
:10014000DF91CF9108958FEF84BB15BA0E944100D3
:10015000853361F492E095BB2FEF30E792E02150B8
:1001600030409040E1F700C0000015BA863361F4DA
:1001700091E095BB2FEF30E792E021503040904066
:10018000E1F700C0000015BA8A3201F783E085BBB1
:100190002FEF30E782E0215030408040E1F700C08F
:0A01A000000015BAD3CFF894FFCF8A
:1001AA003132334134353642373839432A302344E1
:00000001FF
