:100000000C942A000C943F000C943F000C943F0089
:100010000C943F000C943F000C943F000C943F0064
:100020000C943F000C943F000C943F000C943F0054
:100030000C943F000C943F000C943F000C943F0044
:100040000C943F000C943F000C943F000C943F0034
:100050000C943F0011241FBECFE5D8E0DEBFCDBF1A
:1000600010E0A0E6B0E0E0E3F4E002C005900D92FD
:10007000A038B107D9F70E9444010C9416020C94E1
:1000800000001ABA8FEF81BB81E082BB89B3813057
:10009000A1F189B3823099F189B3843091F189B3A8
:1000A000883089F182E082BB89B3813071F189B3F4
:1000B000823069F189B3843061F189B3883059F1B4
:1000C00084E082BB89B3813041F189B3823039F158
:1000D00089B3843031F189B3883029F188E082BB5B
:1000E00089B3813011F189B3823009F189B3843049
:1000F00001F189B38830F9F0089587E3089588E322
:10010000089589E308958FE2089584E3089585E3CF
:10011000089586E308958AE2089581E3089582E3CD
:10012000089583E308958DE2089583E4089580E3BC
:1001300008958DE308958BE2089598B39F70282F5A
:10014000207F922B98BB98B39E7F98BB98B3926008
:1001500098BB32E03A95F1F700C098B39D7F98BB09
:10016000EFE8F1E03197F1F700C0000028B3F0E1CB
:100170008F9FC0011124922F9F70892B88BB88B359
:10018000826088BB32E03A95F1F700C088B38D7F7A
:1001900088BB8FE99FE00197F1F700C00000089548
:1001A00098B39F70282F207F922B98BB98B39160B3
:1001B00098BB98B3926098BB32E03A95F1F700C0D3
:1001C00098B39D7F98BBEFE8F1E03197F1F700C05D
:1001D000000028B3F0E18F9FC0011124922F9F707F
:1001E000892B88BB88B3826088BB32E03A95F1F7EF
:1001F00000C088B38D7F88BB8FE99FE00197F1F73E
:1002000000C0000008958FEF87BB8FE39CE9019742
:10021000F1F700C0000082E00E949D0088E20E9489
:100220009D008CE00E949D0086E00E949D0081E080
:100230000E949D008FE99FE00197F1F700C0000048
:1002400008950F931F93CF93DF938C01C0E0D0E00C
:1002500003C00E94D0002196F801EC0FFD1F8081A1
:100260008111F7CFDF91CF911F910F91089581E018
:100270000E949D008FE99FE00197F1F700C0000008
:1002800080E80E949D0008958FEF84BB15BA0E94FC
:10029000030180E690E00E9421010E944100C82FE6
:1002A000813369F485E690E00E9421012FE788E31D
:1002B00091E0215080409040E1F700C00000C2333F
:1002C00069F487E690E00E9421012FE788E391E03E
:1002D000215080409040E1F700C00000C33369F432
:1002E00089E690E00E9421012FE788E391E0215008
:1002F00080409040E1F700C00000C43369F48BE611
:1003000090E00E9421012FE788E391E02150804096
:100310009040E1F700C00000C53369F48DE690E03D
:100320000E9421012FE788E391E021508040904016
:10033000E1F700C00000C63369F48FE690E00E9448
:1003400021012FE788E391E0215080409040E1F7C0
:1003500000C00000C73369F481E790E00E942101EA
:100360002FE788E391E0215080409040E1F700C002
:100370000000C83369F483E790E00E9421012FE771
:1003800088E391E0215080409040E1F700C00000F8
:10039000C93369F485E790E00E9421012FE788E3E3
:1003A00091E0215080409040E1F700C00000C03350
:1003B00069F487E790E00E9421012FE788E391E04C
:1003C000215080409040E1F700C00000C33269F442
:1003D00089E790E00E9421012FE788E391E0215016
:1003E00080409040E1F700C00000CF3269F48BE715
:1003F00090E00E9421012FE788E391E021508040A6
:100400009040E1F700C00000CB3269F48DE790E046
:100410000E9421012FE788E391E021508040904025
:10042000E1F700C000000E94370137CFF894FFCFFA
:100430006C616B61003100320033003400350036EE
:1004400000370038003900300023002F002B000057
:00000001FF
