:100000000C9463000C948B000C948B000C948B006C
:100010000C948B000C948B000C948B000C948B0034
:100020000C948B000C948B000C948B000C948B0024
:100030000C948B000C948B000C948B000C948B0014
:100040000C94000C0C948B000C94CE0B0C94A80B0D
:100050000C948B000C948B000C948B000C948B00F4
:100060000C944A0C0C948B00000000002400270024
:100070002A0000000000250028002B0000000000DE
:1000800023002600290004040404040404040202DA
:100090000202020203030303030301020408102007
:1000A0004080010204081020010204081020000012
:1000B0000008000201000003040700000000000027
:1000C0000000650D111011241FBECFEFD8E0DEBF78
:1000D000CDBF13E0A0E0B1E0EAECF9E202C0059088
:1000E0000D92A430B107D9F724E0A4E0B3E001C039
:1000F0001D92A03DB207E1F710E0C2E6D0E004C0D7
:100100002197FE010E94E012C136D107C9F70E9473
:100110001E0E0C94D8140C94000080E480937C0094
:1001200080917A00806480937A0080917A0086FDC5
:10013000FCCF8091780090917900089596E0899F96
:10014000D0011124AF5ABB4F90967C936E935F976A
:1001500091E091969C939197E091BE04F091BF0439
:100160009091BD04992339F0309751F0811108C066
:1001700080916D040994309719F05C968C91FACFB8
:100180000895CF92DF92EF92FF920F931F9396E024
:10019000899FF0011124EF5AFB4F11A2278D30A146
:1001A0002130310551F178F02230310509F451C088
:1001B0002330310509F452C01F910F91FF90EF9049
:1001C000DF90CF9008956623B9F361E070E00E945C
:1001D0009E002FB7F89480919E0390919F03A09169
:1001E000A003B091A1032FBF8093A9049093AA0408
:1001F000A093AB04B093AC04DFCF9FB7F894C0904A
:100200009E03D0909F03E090A003F090A1039FBFB6
:100210000091A9041091AA042091AB043091AC0480
:10022000C01AD10AE20AF30A0091BB041091BC047F
:1002300030E020E00C151D052E053F0550F462E06E
:1002400070E01F910F91FF90EF90DF90CF900C9492
:100250009E006111B1CF63E070E0F3CF70E060E029
:10026000F0CFDB0114964D915C9115976D917C91C7
:10027000DC01ED91FC910280F381E02D0994AF92B5
:10028000BF92CF92DF92EF92FF920F931F93CF9383
:10029000DF936C017B018B01040F151FEB015E01E5
:1002A000AE18BF08C017D10759F06991D601ED917A
:1002B000FC910190F081E02DC6010995892B79F719
:1002C000C501DF91CF911F910F91FF90EF90DF90CB
:1002D000CF90BF90AF900895FC01538D448D252F92
:1002E00030E0842F90E0821B930B541710F0CF96D0
:1002F000089501970895FC01918D828D981761F002
:10030000A28DAE0FBF2FB11D5D968C91928D9F5F18
:100310009F73928F90E008958FEF9FEF0895FC01F7
:10032000918D828D981731F0828DE80FF11D858DAA
:1003300090E008958FEF9FEF0895FC01918D228D3D
:10034000892F90E0805C9F4F821B91098F739927C2
:10035000089582EA93E00E949D0121E0892B09F42F
:1003600020E0822F089580E090E0892B29F00E9400
:10037000A90181110C9400000895FC01A48DA80F1F
:10038000B92FB11DA35ABF4F2C91848D90E00196D7
:100390008F739927848FA689B7892C93A089B189F7
:1003A0008C91837080648C93938D848D981306C098
:1003B0000288F389E02D80818F7D80830895EF92FC
:1003C000FF920F931F93CF93DF93EC0181E0888F0F
:1003D0009B8D8C8D98131AC0E889F989808185FFDF
:1003E00015C09FB7F894EE89FF896083E889F98981
:1003F00080818370806480839FBF81E090E0DF9183
:10040000CF911F910F91FF90EF900895F62E0B8DD5
:1004100010E00F5F1F4F0F731127E02E8C8D8E1190
:100420000CC00FB607FCFACFE889F989808185FFF7
:10043000F5CFCE010E94BD01F1CFEB8DEC0FFD2F6A
:10044000F11DE35AFF4FF0829FB7F8940B8FEA89B2
:10045000FB8980818062CFCFCF93DF93EC01888DC1
:100460008823B9F0AA89BB89E889F9898C9185FD2F
:1004700003C0808186FD0DC00FB607FCF7CF8C91BD
:1004800085FFF2CF808185FFEDCFCE010E94BD01B7
:10049000E9CFDF91CF910895833081F028F4813046
:1004A00099F08230A9F008958730A9F08830C9F01A
:1004B0008430B1F4809180008F7D03C080918000F2
:1004C0008F7780938000089584B58F7784BD0895D9
:1004D00084B58F7DFBCF8091B0008F778093B00083
:1004E00008958091B0008F7DF9CFCF93DF93282FAF
:1004F00030E0F901E255FF4F8491F901E656FF4FD4
:10050000D491F901EA57FF4FC491CC23A1F0811196
:100510000E944C02EC2FF0E0EE0FFF1FE458FF4F5B
:10052000A591B491EC91ED2381E090E009F480E095
:10053000DF91CF91089580E090E0FACF862F0C9460
:1005400075021F93CF93DF93282F30E0F901E25516
:10055000FF4F8491F901E656FF4FD491F901EA5714
:10056000FF4FC491CC23A9F0162F81110E944C0299
:10057000EC2FF0E0EE0FFF1FEE58FF4FA591B49166
:100580008FB7F894EC91111108C0D095DE23DC935D
:100590008FBFDF91CF911F910895DE2BF8CF862F6B
:1005A000642F0C94A102CF93DF9390E0FC01E656F8
:1005B000FF4F24918A579F4FFC0184918823C9F0F3
:1005C00090E0880F991FFC01E859FF4FA591B49165
:1005D000FC01EE58FF4FC591D49161110DC09FB73A
:1005E000F8948C91209582238C93888128232883EA
:1005F0009FBFDF91CF910895623051F49FB7F89477
:100600003C91822F809583238C93E8812E2BEFCF12
:100610008FB7F894EC912E2B2C938FBFEACF862FB7
:10062000642F0C94D3026F927F928F929F92AF921D
:10063000BF92CF92DF92EF92FF920F931F93CF93CF
:10064000DF9381E08093BD048FB7F89440919E03BF
:1006500050919F036091A0037091A1038FBF80917F
:10066000AD049091AE04A091AF04B091B004481BCA
:10067000590B6A0B7B0B8091B9049091BA04B0E0DE
:10068000A0E084179507A607B70708F01DC1C0E0D2
:100690008091B704C81760F4E091B304F091B404FA
:1006A000EC0FF11D62E080810E94D302CF5FF0CF9A
:1006B000712C812C912C540183948091B80478166C
:1006C00008F05FC0072D10E0E091B504F091B6048A
:1006D000E00FF11F61E080810E94D302E091B50438
:1006E000F091B604E00FF11F60E080810E94A1024A
:1006F000D501C401072C04C0880F991FAA1FBB1F76
:100700000A94D2F76C017C01E094F094612C809102
:10071000B7046816F8F4C62DD0E0E091B304F09168
:10072000B404EC0FFD1F80810E9475022496CC0F4B
:10073000DD1FCF5ADB4F892B41F4888199818C29A9
:100740009D29998388836394E2CF888199818E2142
:100750009F21F7CFE091B504F091B604E00FF11FAF
:1007600061E080810E94A1028091B5049091B6045D
:10077000080F191F60E0F80180810E94D302739472
:100780009CCFC1E5D4E0FE018FEF9FEF278D30A114
:10079000232B21F4148E968F858F11A2369624E098
:1007A000ED38F20799F7F12C96E0D92E8091B70435
:1007B000F81608F050C0E12C0F2D10E0000F111FAB
:1007C000075A1B4F2091B804E21608F042C0F80106
:1007D000608171810E2C02C0769567950A94E2F7CC
:1007E000F29E900111242E0D311DE1E5F4E080E030
:1007F000458D568D2417350709F46AC08F5F3696EC
:100800008A30B1F760FF23C0E1E5F4E090E080E0DA
:10081000448D411117C0E091B104F091B204E20F90
:10082000F31F4081D89EF001D99EF00D1124EF5A9C
:10083000FB4F448F368F258F10A2178E61E00E94E8
:10084000C10005C0019636968A30910509F7E394F8
:10085000B9CFF394ABCF80E099A19111892F26965F
:10086000F4E0CD38DF07C1F79FB7F89440919E03BD
:1008700050919F036091A0037091A1039FBF40938B
:10088000AD045093AE046093AF047093B00488231A
:10089000D9F0809172048823B9F08091700490910E
:1008A0007104019789F480916D04DF91CF911F91BC
:1008B0000F91FF90EF90DF90CF90BF90AF909F90FF
:1008C0008F907F906F9008951092BD0480E0EDCFDF
:1008D0006170B5CF1F93CF93DF93182FEB0161E0C9
:1008E0000E94D302209739F460E0812FDF91CF91ED
:1008F0001F910C94A102CF3FD10511F461E0F5CF17
:10090000E12FF0E0E255FF4FE491E33031F140F4A4
:10091000E130B1F0E230E1F0C038D1057CF7E4CF4E
:10092000E73029F1E83059F1E430B1F780918000E7
:10093000806280938000D0938B00C0938A0004C0B3
:1009400084B5806884BDC7BDDF91CF911F910895A4
:1009500084B5806284BDC8BDF7CF80918000806877
:1009600080938000D0938900C0938800EDCF809160
:10097000B00080688093B000C093B300E5CF809151
:10098000B00080628093B000C093B400DDCF3FB769
:10099000F89480919A0390919B03A0919C03B0914D
:1009A0009D0326B5A89B05C02F3F19F00196A11DF8
:1009B000B11D3FBFBA2FA92F982F8827BC01CD01A9
:1009C000620F711D811D911D42E0660F771F881F08
:1009D000991F4A95D1F708958F929F92AF92BF9237
:1009E000CF92DF92EF92FF924B015C010E94C7040D
:1009F0006B017C010E94C7046C197D098E099F0957
:100A0000683E734081059105A8F321E0821A9108A0
:100A1000A108B10888EEC80E83E0D81EE11CF11CC5
:100A200081149104A104B10429F7FF90EF90DF90A5
:100A3000CF90BF90AF909F908F9008951F93CF93CA
:100A4000DF93C1E0C0932E03882399F1D091B800C1
:100A50001091BA008091BC008A7B8093BC0060E05A
:100A600082E10E94A10260E083E10E94A102109253
:100A70007303C09375031092740361E082E10E94D6
:100A8000A10261E083E10E94A1028091B9008E7F02
:100A90008093B9008091B9008D7F8093B90088E47C
:100AA0008093B80085E48093BC001093BA00D09383
:100AB000B800DF91CF911F91089520914F03260F29
:100AC0003327331F21323105ECF420917303FC01ED
:100AD00090E080E0243069F082E00895A0914F0317
:100AE0002191AC01415D5C4FA40FB52FB11D2C933A
:100AF0000196861798F380914F03680F60934F0318
:100B000080E0089581E0089508958FEF9FEF0895A4
:100B10008FEF9FEF08958091280390E09195819544
:100B200091090895CF92DF92EF92FF920F931F9356
:100B3000CF93DF937C01CB018A01209127032223ED
:100B400089F0EB016B01C40ED51ECC15DD0569F0F3
:100B50006991D701ED91FC910190F081E02DC701E1
:100B60000995F3CF642F0E945D05C801DF91CF91F5
:100B70001F910F91FF90EF90DF90CF900895CF934A
:100B8000DF931F92CDB7DEB769832091270322231D
:100B9000F9F020912603203258F021E030E0FC01EA
:100BA0003383228390E080E00F90DF91CF9108950E
:100BB00080912503E82FF0E0EB5FFC4F9981908353
:100BC0008F5F809325038093260381E090E0ECCF34
:100BD00061E0CE0101960E945D05F7CFCF92DF92D2
:100BE000EF92FF920F931F93CF93DF93FC01C48189
:100BF00021E020932703C093040310922503109251
:100C000026038385682B8FE394E00E94BF05D09173
:100C10002603D13208F092C00E94C7046B017C0108
:100C200080917303811165C082E08093730381E03A
:100C3000809375038FEF8093720310929703D09384
:100C40009603A5E0B3E0E6E7F3E080E0D81385C0C3
:100C50001092980380919803CC0FC82BC0939803EF
:100C600080917403813009F07CC0109274030E945B
:100C7000C7046B017C01809198038093BB00809135
:100C80002A0390912B03A0912C03B0912D03892B63
:100C90008A2B8B2B99F00E94C70400912A03109194
:100CA0002B0320912C0330912D036C197D098E09A3
:100CB0009F090617170728073907E0F18091BC0044
:100CC00083FDD9CF85EC8093BC000E94C7046B01E3
:100CD0007C0180917303823009F445C080917203D6
:100CE0008F3F61F180917203803241F180917203F4
:100CF00025C080912A0390912B03A0912C03B091E1
:100D00002D03892B8A2B8B2B09F48ACF0E94C704D1
:100D100000912A0310912B0320912C0330912D0375
:100D20006C197D098E099F090617170728073907CF
:100D300008F076CF809129030E941E0510922503AA
:100D40001092260310922703DF91CF911F910F91EC
:100D5000FF90EF90DF90CF9008959D9191938F5FDA
:100D600075CF85EEB0CF80912A0390912B03A0918F
:100D70002C03B0912D03892B8A2B8B2B09F4A9CF3F
:100D80000E94C70400912A0310912B0320912C0389
:100D900030912D036C197D098E099F0906171707DD
:100DA0002807390708F095CFC5CF089590E080E077
:100DB0000895AB012FEF30E0DC010E94D9129A01B7
:100DC000550F440B550B0E94381137FF02C030E01D
:100DD00020E0C9012F3F310519F014F08FEF90E0AA
:100DE00008950F931F93CF93DF938B01EA01BC010A
:100DF0008BE00E946A04B8018AE00E946A04BE0186
:100E000089E0DF91CF911F910F910C946A040F93A9
:100E10001F93CF938C01C62F0E94EE056C2F646048
:100E2000C8010E94EE056C2F6B7FC8010E94EE0581
:100E300083EC90E00197F1F7CF911F910F91089506
:100E40000F931F93CF93DF938C01D62FC42F607F16
:100E5000642B0E94070780E1D89FB00111246C2BFE
:100E6000C801DF91CF911F910F910C940707CF9389
:100E7000DF93CDB7DEB728970FB6F894DEBF0FBE6D
:100E8000CDBF98E0EEE1F1E0DE01119601900D9208
:100E90009A95E1F79091C804961708F46FEF262F02
:100EA00030E0220F331F41E050E04C0F5D1F240F54
:100EB000351FF9016081680F606840E080EC94E0C4
:100EC00028960FB6F894DEBF0FBECDBFDF91CF914D
:100ED0000C94200740E061E080EC94E00E94200741
:100EE0008BE39FE10197F1F7089541E00E9420070D
:100EF00081E090E00895FB0101900020E9F731972F
:100F0000AF01461B570BDC01ED91FC910280F38190
:100F1000E02D09948F929F92AF92BF920F931F93EF
:100F2000CF93DF93CDB7DEB7A1970FB6F894DEBFAE
:100F30000FBECDBF19A2423008F44AE08E010F5D0A
:100F40001F4F842E912CB12CA12CA50194010E943D
:100F50008E11E62FB901CA01EA3004F5E05DD8012F
:100F6000EE938D01232B242B252B79F790E080E045
:100F7000109729F0BD0182EA93E00E947B07A196B9
:100F80000FB6F894DEBF0FBECDBFDF91CF911F919A
:100F90000F91BF90AF909F908F900895E95CDFCF45
:100FA000CF92DF92EF92FF92CF93DF936B017C01A0
:100FB0006DE282EA93E00E94DF01EC016627772769
:100FC000CB016C197D098E099F094AE00E948A07AE
:100FD0008C0F9D1FDF91CF91FF90EF90DF90CF900E
:100FE0000895BC01990F880B990B97FD0C94D007BD
:100FF0004AE00C948A07CF93DF93BC01990F880BCA
:10100000990B97FF0EC00E94D007EC0160E671E0DB
:1010100082EA93E00E947B078C0F9D1FDF91CF91A6
:1010200008954AE00E948A07F0CF0C947B070E9443
:101030006A0760E080E00E94370763E671E080ECB9
:1010400094E00E94150860E088E00E94370767E698
:1010500071E080EC94E00E94150861E080E00E945D
:1010600037076BE671E080EC94E00E94150861E0C0
:101070008DE00C943707FF920F931F93CF93DF936C
:10108000E2EAF3E0A089B18982E0F82EFC92A4851F
:10109000B5851C92A685B7858FEC8C93108EA4899C
:1010A000B58986E08C93A289B3898C9180618C93F9
:1010B000A289B3898C9188608C93A289B3898C9121
:1010C00080688C930288F389E02D80818F7D8083F6
:1010D0006FE671E082EA93E00E94150861E08FE01C
:1010E0000E94D30261E080E10E94D30261E081E1CD
:1010F0000E94D30260E08EE00E94D30261E08BE0A8
:101100000E94D30261E08AE00E94D30261E089E09C
:101110000E94D302C0ECD4E08D8188608D83F88674
:1011200062E370E080E090E00E94EC046B85CE0109
:101130000E94EE0568EE73E080E090E00E94EC040F
:1011400060E3CE010E9407070BE416E4C801019793
:10115000F1F760E3CE010E940707C8010197F1F79C
:1011600060E3CE010E94070783E592E00197F1F763
:1011700060E2CE010E9407076D81606240E0CE010F
:101180000E94200784E08E8340E06CE0CE010E9444
:1011900020070E946A07FF8240E066E0CE010E94BD
:1011A000200740E062E0CE010E9420078BE39FE130
:1011B0000197F1F760E080E00E94370766EE71E08A
:1011C000CE010E94150860E088E00E9437076FEEAC
:1011D00071E0CE010E94150861E080E00E943707AF
:1011E00068EF71E0CE010E94150861E088E00E947E
:1011F000370761E072E0CE01DF91CF911F910F912F
:10120000FF900C94150860E080E00E94370766EEBE
:1012100071E080EC94E00E94150860E088E00E9494
:1012200037076FEE71E080EC94E00E94150861E0F2
:1012300080E00E94370768EF71E080EC94E00E9444
:10124000150861E088E00E94370761E072E080ECF9
:1012500094E00E9415080C943B08CF92DF92EF9225
:10126000FF920F931F93CF93DF930E946A076BE067
:1012700072E080EC94E00E94150863E172E082EA7B
:1012800093E00E947B0760E671E082EA93E00E94AF
:101290007B0703E010E0D0E0C0E0F12CE12CD12C82
:1012A000C12C61E08FE00E94A10264E670E080E062
:1012B00090E00E94EC040E948D00C80ED91EC60169
:1012C0000E94FB0760E08FE00E94A10264E670E0EC
:1012D00080E090E00E94EC0461E080E10E94A102C5
:1012E00064E670E080E090E00E94EC040E948D00D3
:1012F000E80EF91EC7010E94FB0760E080E10E9432
:10130000A10264E670E080E090E00E94EC0461E0FD
:1013100081E10E94A10264E670E080E090E00E941A
:10132000EC040E948D00C80FD91FCE010E94FB075C
:1013300060E081E10E94A10264E670E080E090E05C
:101340000E94EC040150110909F0ABCFBE01DD0F82
:10135000880B990B0E94881020E030E040E450E4B4
:101360000E942C126B017C0120E030E0A9010E9458
:10137000D41220E030E040E05FE387FD10C0C701F9
:10138000B6010E94C0110E949E12CB01DF91CF9145
:101390001F910F91FF90EF90DF90CF900895C701BC
:1013A000B6010E94BF11EFCF0F931F93CF93DF932E
:1013B000EC0188819981009759F02A813B81261799
:1013C000370730F081E0DF91CF911F910F910895A1
:1013D0008B016F5F7F4F0E940B14009759F0998328
:1013E00088831B830A832C813D81232B59F7FC01C1
:1013F0001082E8CF80E0E7CFCF93DF93EC018881C4
:101400009981009711F00E948213198218821D821F
:101410001C821B821A82DF91CF910895EF92FF9276
:101420000F931F93CF93DF93EC01FB01E080F180DA
:10143000E114F10411F10481158101151105A9F0E0
:101440008C819D81080F191FB801CE010E94D4091B
:10145000882399F0288139818C819D81B701820F81
:10146000931F0E94D1141D830C83CE01DF91CF9175
:101470001F910F91FF90EF900895CE010E94FC09FB
:10148000F4CFEF92FF920F931F93CF93DF93EC0172
:101490007B018A01BA010E94D40981110BC0CE01DF
:1014A0000E94FC09CE01DF91CF911F910F91FF9017
:1014B000EF9008951D830C83B701888199810E9464
:1014C000D114F0CFEF92FF920F931F93CF93DF933E
:1014D000CDB7DEB762970FB6F894DEBF0FBECDBFB3
:1014E0008C01CB01F80111821082138212821582C5
:1014F00014824AE09E012F5F3F4F7901B9010E949B
:101500003C10F70101900020E9F73197AF014E1927
:101510005F09B701C8010E94410A62960FB6F894AC
:10152000DEBF0FBECDBFDF91CF911F910F91FF9016
:10153000EF900895FC0111821082138212821582AD
:101540001482FB0101900020E9F73197AF01461B9F
:10155000570B0C94410AFC0180819181009711F096
:101560000C948213089585ED8093BC0080912A032A
:1015700090912B03A0912C03B0912D030796A11DF0
:10158000B11D23E0B695A795979587952A95D1F734
:101590002091BC0024FD03C0109273030895409174
:1015A0002A0350912B0360912C0370912D03452B3E
:1015B000462B472B69F30097A105B10541F025E3C0
:1015C0002A95F1F700000197A109B109E1CF8091B7
:1015D00029030C941E05EF92FF920F931F93CF9354
:1015E000DF93CDB7DEB728970FB6F894DEBF0FBEF6
:1015F000CDBF7C0150E040E062E671E08BE494E016
:101600000E94410A0E941303182F8823D9F38434BF
:1016100091F40E94030910E000E0C80128960FB67B
:10162000F894DEBF0FBECDBFDF91CF911F910F9118
:10163000FF90EF90089580ED810F8A3008F06BC025
:101640001A8219821C821B821E821D8260914B04A9
:1016500070914C046115710541F040914F04509117
:101660005004CE0101960E94410A1F8318860D8105
:101670001E810F5F1F4FB801CE0101960E94D40951
:101680008823E9F129813A818D819E81BE01695FBC
:101690007F4F820F931F0E94D1141E830D83698197
:1016A0007A816115710581F14D815E818BE494E051
:1016B0000E94410ACE0101960E94AB0A6BE474E0DD
:1016C00082EA93E00E94310160E671E082EA93E0F1
:1016D0000E947B0760E081E0E816F104D1F061E050
:1016E00082E0E816F104A9F460E08BE00E9437077D
:1016F0006BE474E080EC94E00E94310183CFCE0172
:1017000001960E94FC09CBCF8BE494E00E94FC0977
:10171000D1CF83E0EBCF133209F074CF80914B042B
:1017200090914C04009781F00E9415108B016BE49E
:1017300074E082EA93E00E94310160E671E082EA9F
:1017400093E00E947B0769CF60E070E0CB01EECFB1
:101750001F920F920FB60F9211242F933F934F9326
:101760005F936F937F938F939F93AF93BF93EF9309
:10177000FF9382EA93E00E94BD01FF91EF91BF9138
:10178000AF919F918F917F916F915F914F913F9119
:101790002F910F900FBE0F901F9018951F920F92D0
:1017A0000FB60F9211242F938F939F93EF93FF9374
:1017B000E091B203F091B3038081E091B803F0911E
:1017C000B90382FD1BC090818091BB038F5F8F7333
:1017D0002091BC03821741F0E091BB03F0E0EE558D
:1017E000FC4F958F8093BB03FF91EF919F918F9159
:1017F0002F910F900FBE0F901F9018958081F4CFFE
:101800001F920F920FB60F9211242F933F938F9335
:101810009F93AF93BF9380919E0390919F03A0915C
:10182000A003B091A1033091990323E0230F2D373A
:1018300058F50196A11DB11D2093990380939E0335
:1018400090939F03A093A003B093A10380919A0368
:1018500090919B03A0919C03B0919D030196A11DC3
:10186000B11D80939A0390939B03A0939C03B09324
:101870009D03BF91AF919F918F913F912F910F90B9
:101880000FBE0F901F90189526E8230F0296A11DFA
:10189000B11DD2CF1F920F920FB60F9211242F932A
:1018A0003F934F935F936F937F938F939F93AF93E8
:1018B000BF93EF93FF938091B900887F803609F43E
:1018C0004AC0F0F5883209F4A5C018F5803109F452
:1018D00099C0B8F4882309F4F5C0883009F492C09F
:1018E000FF91EF91BF91AF919F918F917F916F91F8
:1018F0005F914F913F912F910F900FBE0F901F90CE
:101900001895883109F486C0803251F780937203AC
:1019100014C0803409F49BC040F48033B9F3883399
:10192000F9F68093720385ECAEC0803509F483C06C
:10193000883509F494C0883499F60E94B30AD0CF50
:10194000883909F48AC038F5883729F050F4883688
:1019500011F0803729F683E08093730310927103AE
:1019600055C0883809F479C0803919F0803809F0F9
:10197000B7CF80917103803208F06FC0E09171039E
:1019800081E08E0F809371038091BB00F0E0EF5AED
:10199000FC4F80833BC0803B39F0D0F4803A09F49F
:1019A00077C0883A09F09CCF84E08093730310924B
:1019B000500310924F03F0E0E0E0099580914F034F
:1019C00081110FC081E080934F0310922F0309C053
:1019D000803C09F4A8CF883C09F4A5CF883B09F0E6
:1019E0007FCFE091500381E08E0F80935003F0E0B1
:1019F000E15DFC4F80818093BB009091500380910A
:101A00004F0329C0809198038093BB0085EC80939D
:101A1000BC0066CF9091970380919603981758F574
:101A2000E091970381E08E0F80939703F0E0EA58EE
:101A3000FC4F8081E9CFE091970381E08E0F809386
:101A400097038091BB00F0E0EA58FC4F80839091AF
:101A50009703809196039817C8F285E8D8CFE09154
:101A6000970381E08E0F809397038091BB00F0E095
:101A7000EA58FC4F80838091750381115ECF81E02D
:101A80008093740384EA8093BC001092730328CF80
:101A900085EC8093BC0010927303809171038032B7
:101AA00030F4E0917103F0E0EF5AFC4F1082609146
:101AB000710370E081E593E0F0E0E0E009951092B9
:101AC00071030ECF1092720338CF1092A5031092BB
:101AD000A40388EE93E0A0E0B0E08093A603909387
:101AE000A703A093A803B093A9032AE231E030939F
:101AF000A3032093A20325EC30E03093AF0320939F
:101B0000AE0324EC30E03093B1032093B00320EC1B
:101B100030E03093B3032093B20321EC30E03093F4
:101B2000B5032093B40322EC30E03093B703209345
:101B3000B60326EC30E03093B9032093B80310923B
:101B4000BB031092BC031092BD031092BE0310920F
:101B50004204109241048093430490934404A09360
:101B60004504B09346048CE391E090934004809345
:101B70003F041092C3041092C20488E591E0909350
:101B8000C1048093C00480E28093C40480E1809308
:101B9000C90482E08093CA041092CB0410925304CB
:101BA0001092570410925604109258048EE491E05B
:101BB0009093520480935104EDE6F4E01082148275
:101BC00013821582369684E0E93AF807B9F784E083
:101BD00091E09093B4048093B30480E091E09093FB
:101BE000B6048093B50484E08093B7048093B8046E
:101BF00088E091E09093B2048093B1048AE090E091
:101C00009093BA048093B90484EF91E09093BC045C
:101C10008093BB041092BF041092BE041092AD04D6
:101C20001092AE041092AF041092B0041092BD0452
:101C300062E671E08BE494E00C949A0ACF93DF9310
:101C4000CDB7DEB72C970FB6F894DEBF0FBECDBF71
:101C5000789484B5826084BD84B5816084BD85B587
:101C6000826085BD85B5816085BD80916E00816093
:101C700080936E0010928100809181008260809339
:101C8000810080918100816080938100809180003B
:101C90008160809380008091B10084608093B10066
:101CA0008091B00081608093B00080917A00846060
:101CB00080937A0080917A00826080937A0080918C
:101CC0007A00816080937A0080917A0080688093A6
:101CD0007A001092C1000E943B080FEF10E080E0F4
:101CE000A82E80E0B82E0E941303882309F490C127
:101CF000813409F09CC06CE172E082EA93E00E94BA
:101D00007B0760E671E082EA93E00E947B070E9415
:101D1000170864E672E080EC94E00E9415080E94C7
:101D200013038434B1F40E946A0760E080E00E94EB
:101D3000370768E672E080EC94E00E941508A11471
:101D4000B10489F20E94A901882369F20E9400006F
:101D5000CACF823491F1833409F44CC08134F9F64E
:101D60006AE772E082EA93E00E9415080E942D095A
:101D70000E94170864E672E080EC94E00E94150867
:101D800061E08BE00E9437076FE872E080EC94E03E
:101D90000E94150861E972E082EA93E00E9415084A
:101DA00081E090E00E94EB0A82E090E00E94EB0A62
:101DB00083E090E00E94EB0AB2CF68E972E082EA29
:101DC00093E00E9415080E942D090E94170864E6FE
:101DD00072E080EC94E00E94150861E08BE00E94C4
:101DE000370760EB72E080EC94E00E94150862EB2C
:101DF00072E0D2CF69EB72E082EA93E00E941508AC
:101E00000E942D090E94170864E672E080EC94E0BD
:101E10000E94150861E08BE00E94370761E073E0E3
:101E200080EC94E00E94150860ED72E0B5CF82343A
:101E300009F0ACC00E942D097C01912C812CC401B9
:101E40000E94FB07D12CC12CC6010E94FB07C701D1
:101E50000E94FB0767ED72E082EA93E00E9415089A
:101E600068E471E0C4010E94D9064C010E94F107A8
:101E700063EE72E082EA93E00E9415086FE570E07D
:101E8000C6010E94D9066C010E94F1076FEE72E054
:101E900082EA93E00E94150860E770E0C7010E94A3
:101EA000D9067C010E94F1070E946A0760E080E089
:101EB0000E943707B401CE0101960E94620A63E6D0
:101EC00071E0CE0107960E949A0ABE016F5F7F4FB4
:101ED000CE0107960E940E0ABC0180EC94E00E949D
:101EE0003101CE0107960E94AB0ACE0101960E94F5
:101EF000AB0A60E088E00E943707B601CE01019688
:101F00000E94620A67E671E0CE0107960E949A0A73
:101F1000BE016F5F7F4FCE0107960E940E0ABC0183
:101F200080EC94E00E943101CE0107960E94AB0A3A
:101F3000CE0101960E94AB0A61E080E00E94370763
:101F4000B701CE0101960E94620A6BE671E0CE01F4
:101F500007960E949A0ABE016F5F7F4FCE010796D7
:101F60000E940E0ABC0180EC94E00E943101CE0177
:101F700007960E94AB0ACE0101960E94AB0A61E06F
:101F80008DE00E9437076BEF72E0D5CE8334D1F538
:101F90000E9417086FEF72E080EC94E00E94150831
:101FA00061E972E082EA93E00E94150881E090E026
:101FB0000E94EB0A7C0163EB72E082EA93E00E94EC
:101FC000150882E090E00E94EB0A6C0161ED72E07E
:101FD00082EA93E00E94150883E090E00E94EB0AF9
:101FE000A801481B590BB8016C197D09C8018E194D
:101FF0009F090E94F10668E873E180E090E00E948A
:10200000EC049DCE843409F09ACE0E94030997CE49
:1020100050E040E070E060E090E080E00E94F10677
:102020008ECE8BE494E00C94AB0A1F93FC019927AD
:102030008827BC01E89411911032E9F3193010F0AF
:102040001E30C8F31B3251F01D3249F4689406C0AB
:102050000E944710610F711D811D911D1191105338
:102060001A30B0F33EF490958095709561957F4F4E
:102070008F4F9F4F1F910895BB274A3031F499230A
:1020800022F4BDE2909581959F4F0C945D10592FDD
:10209000482F372F262F660F771F881F991F660F2F
:1020A000771F881F991F620F731F841F951F660F6C
:1020B000771F881F991F0895BB27FB015527AA2763
:1020C000880F991FAA1FA41710F0A41B83955051C5
:1020D000B9F7A05DAA3308F0A95DA193009779F73D
:1020E000B111B1931192CB010C947610DC01FC017B
:1020F000672F71917723E1F7329704C07C916D933C
:1021000070836291AE17BF07C8F30895E89409C0C1
:1021100097FB3EF490958095709561957F4F8F4F1A
:102120009F4F9923A9F0F92F96E9BB279395F69530
:10213000879577956795B795F111F8CFFAF4BB0FAE
:1021400011F460FF1BC06F5F7F4F8F4F9F4F16C012
:10215000882311F096E911C0772321F09EE8872F9C
:10216000762F05C0662371F096E8862F70E060E058
:102170002AF09A95660F771F881FDAF7880F9695D1
:10218000879597F90895990F0008550FAA0BE0E875
:10219000FEEF16161706E807F907C0F01216130629
:1021A000E407F50798F0621B730B840B950B39F469
:1021B0000A2661F0232B242B252B21F408950A26CF
:1021C00009F4A140A6958FEF811D811D089597F90F
:1021D0009F6780E870E060E008959FEF80EC0895CD
:1021E00000240A94161617061806090608950024F6
:1021F0000A9412161306140605060895092E039470
:10220000000C11F4882352F0BB0F40F4BF2B11F4E3
:1022100060FF04C06F5F7F4F8F4F9F4F089557FD42
:102220009058440F551F59F05F3F71F04795880F44
:1022300097FB991F61F09F3F79F0879508951216DB
:1022400013061406551FF2CF4695F1DF08C0161687
:1022500017061806991FF1CF869571056105089438
:102260000895E894BB2766277727CB0197F908954F
:10227000052E97FB1EF400940E944F1157FD07D0C6
:102280000E948E1107FC03D04EF40C944F11509510
:102290004095309521953F4F4F4F5F4F0895909552
:1022A0008095709561957F4F8F4F9F4F08952F9226
:1022B0003F924F925F926F927F928F929F92AF92D6
:1022C000BF92CF92DF92EF92FF920F931F93CF9323
:1022D000DF93CDB7DEB7CA1BDB0B0FB6F894DEBFBA
:1022E0000FBECDBF09942A88398848885F846E84E0
:1022F0007D848C849B84AA84B984C884DF80EE802A
:10230000FD800C811B81AA81B981CE0FD11D0FB632
:10231000F894DEBF0FBECDBFED010895A1E21A2EE5
:10232000AA1BBB1BFD010DC0AA1FBB1FEE1FFF1F79
:10233000A217B307E407F50720F0A21BB30BE40BC9
:10234000F50B661F771F881F991F1A9469F7609510
:102350007095809590959B01AC01BD01CF010895CA
:10236000A29FB001B39FC001A39F700D811D1124D6
:10237000911DB29F700D811D1124911D089550581B
:10238000BB27AA270E94D7110C94FE100E94F010C0
:1023900038F00E94F71020F039F49F3F19F426F42A
:1023A0000C94ED100EF4E095E7FB0C94E710E92F88
:1023B0000E940F1158F3BA17620773078407950735
:1023C00020F079F4A6F50C9431110EF4E0950B2E63
:1023D000BA2FA02D0B01B90190010C01CA01A00177
:1023E0001124FF27591B99F0593F50F4503E68F1D2
:1023F0001A16F040A22F232F342F4427585FF3CF13
:10240000469537952795A795F0405395C9F77EF4E3
:102410001F16BA0B620B730B840BBAF09150A1F02C
:10242000FF0FBB1F661F771F881FC2F70EC0BA0FB2
:10243000621F731F841F48F4879577956795B7953A
:10244000F7959E3F08F0B0CF9395880F08F0992735
:10245000EE0F9795879508950E9440120C94FE10F8
:102460000E94F71058F00E94F01040F029F45F3FEE
:1024700029F00C94E71051110C9432110C94ED10CA
:102480000E940F1168F39923B1F3552391F3951B23
:10249000550BBB27AA2762177307840738F09F5F85
:1024A0005F4F220F331F441FAA1FA9F335D00E2EF2
:1024B0003AF0E0E832D091505040E695001CCAF75F
:1024C0002BD0FE2F29D0660F771F881FBB1F261722
:1024D00037074807AB07B0E809F0BB0B802DBF01F9
:1024E000FF2793585F4F3AF09E3F510578F00C94C8
:1024F000E7100C9432115F3FE4F3983ED4F38695D5
:1025000077956795B795F7959F5FC9F7880F911DE8
:102510009695879597F90895E1E0660F771F881FD4
:10252000BB1F621773078407BA0720F0621B730B87
:10253000840BBA0BEE1F88F7E09508950E94A51250
:102540006894B1110C94321108950E94171188F00B
:102550009F5798F0B92F9927B751B0F0E1F0660F67
:10256000771F881F991F1AF0BA95C9F714C0B130A8
:1025700091F00E943111B1E008950C943111672F50
:10258000782F8827B85F39F0B93FCCF386957795D7
:102590006795B395D9F73EF49095809570956195C0
:1025A0007F4F8F4F9F4F08950E94C31008F48FEF05
:1025B00008950E94B011B7FF0895821B930B0895F0
:1025C000EE0FFF1F0590F491E02D09940F931F93D8
:1025D000CF93DF938230910510F482E090E0E09198
:1025E000CE04F091CF0430E020E0B0E0A0E03097DE
:1025F00099F42115310509F44AC0281B390B243000
:102600003105D8F58A819B816115710589F1FB013E
:1026100093838283FE0111C0408151810281138125
:1026200048175907E0F04817590799F4109761F0D7
:1026300012960C93129713961C933296CF01DF914A
:10264000CF911F910F9108950093CE041093CF0462
:10265000F4CF2115310551F04217530738F0A90185
:10266000DB019A01BD01DF01F801C1CFEF01F9CF14
:102670009093CF048093CE04CDCFFE01E20FF31FE1
:10268000819391932250310939832883D7CF2091A8
:10269000CC043091CD04232B41F420911A013091C8
:1026A0001B013093CD042093CC042091180130916C
:1026B00019012115310541F42DB73EB740911C0198
:1026C00050911D01241B350BE091CC04F091CD04F9
:1026D000E217F307A0F42E1B3F0B2817390778F0F9
:1026E000AC014E5F5F4F2417350748F04E0F5F1F58
:1026F0005093CD044093CC04819391939FCFF0E00D
:10270000E0E09CCFCF93DF930097E9F0FC01329794
:1027100013821282A091CE04B091CF04ED0130E07B
:1027200020E01097A1F420813181820F931F209126
:10273000CC043091CD042817390709F061C0F0931B
:10274000CD04E093CC04DF91CF910895EA01CE1738
:10275000DF07E8F54A815B819E0141155105B1F71C
:10276000E901FB83EA8349915991C40FD51FEC1706
:10277000FD0761F4808191810296840F951FE90124
:1027800099838883828193819B838A83F0E0E0E050
:1027900012968D919C9113970097B9F52D913C91CC
:1027A0001197CD010296820F931F2091CC04309196
:1027B000CD042817390739F6309751F51092CF0418
:1027C0001092CE04B093CD04A093CC04BCCFD3839D
:1027D000C28340815181840F951FC817D90761F4C6
:1027E0004E5F5F4F88819981480F591F5183408305
:1027F0008A819B81938382832115310509F0B0CFB3
:10280000F093CF04E093CE049ECFFD01DC01C0CF56
:1028100013821282D7CFB0E0A0E0E1E1F4E10C94A2
:1028200059118C01009751F4CB010E94E6128C01E2
:10283000C801CDB7DEB7E0E10C947511FC01E60FDD
:10284000F71F9C0122503109E217F30708F49DC0DD
:10285000D901CD91DC911197C617D70798F0C530F3
:10286000D10530F3CE0104978617970708F3C61BEE
:10287000D70B2297C193D1936D937C93CF010E9484
:102880008213D6CF5B01AC1ABD0A4C018C0E9D1E83
:10289000A091CE04B091CF04512C412CF12CE12C0D
:1028A000109731F58091CC049091CD04881599054D
:1028B00009F05CC04616570608F058C08091180110
:1028C00090911901009741F48DB79EB740911C017A
:1028D00050911D01841B950BE817F90708F055C0AE
:1028E000F093CD04E093CC04F90171836083A0CF11
:1028F0008D919C91119712966C90129713967C90E3
:102900001397A815B90559F56C0142E0C40ED11C06
:10291000CA14DB0420F1AC014A195B09DA011296F2
:10292000159780F06282738251834083D9016D9341
:102930007C93E114F10471F0D7011396FC93EE93AC
:10294000129776CF22968C0F9D1FF9019183808379
:10295000F301EFCFF093CF04E093CE0469CF481694
:10296000590608F42C017D01D3019ACFCB010E94B6
:10297000E6127C01009749F0AE01B8010E94C8142C
:10298000C8010E948213870153CF10E000E050CFAE
:10299000FB01DC0102C001900D9241505040D8F77C
:1029A0000895FB01DC0101900D920020E1F70895EC
:1029B00010E0C2E6D0E004C0FE010E94E0122196C1
:0A29C000C336D107C9F7F894FFCF22
:1029CA00050403020C080706313233413435364216
:1029DA00373839432A3023440000D00480000000ED
:1029EA0040001400540000000000DF013F016C01A8
:1029FA002C029D017B018F0100000000BF0592059A
:102A0A00D60684058B0588058505000000000F039E
:102A1A00CF029E020000000075073F01D606D506C8
:102A2A000D0A00523A2000473A2000423A20005349
:102A3A00656C656374204D6F64650A205072657316
:102A4A00732027412720666F722063616C69627266
:102A5A006174696F6E0A205072657373202742276A
:102A6A0020666F722053656E736F72204D6F6465B6
:102A7A00200A2050726573732027432720666F72DD
:102A8A00204C69676874205247422062756C622044
:102A9A00666F7220676976656E207267622076615A
:102AAA006C7565730A0043414C3A2D274127005340
:102ABA00454E3A2D274227005247423A2D274327AF
:102ACA00004D656E753A2D27442700576169742EAB
:102ADA002E2E00576169742E2E2E2E000A5245445E
:102AEA00202D207072657373202741272047524595
:102AFA00454E202D20666F722070726573732027F1
:102B0A00422720424C5545202D2070726573732050
:102B1A002743272046696E6973682D70726573733F
:102B2A002744270043414C0043616C69626172612A
:102B3A0074696F6E206F7665720043616C696272A8
:102B4A006174696F6E20666F72205245440A0052A2
:102B5A00000A2052203D20000A43616C69627261BA
:102B6A0074696F6E20666F7220475245454E0A009F
:102B7A0047000A2047203D20000A43616C696272BF
:102B8A006174696F6E20666F7220424C55450A0067
:102B9A000A2042203D20000A522076616C75652089
:102BAA003D20000A472076616C7565203D20000AA9
:102BBA00422076616C7565203D200053454E0052D7
:042BCA00474200007E
:107E0000112484B714BE81FFF0D085E080938100F7
:107E100082E08093C00088E18093C10086E0809377
:107E2000C20080E18093C4008EE0C9D0259A86E02C
:107E300020E33CEF91E0309385002093840096BBD3
:107E4000B09BFECF1D9AA8958150A9F7CC24DD24C4
:107E500088248394B5E0AB2EA1E19A2EF3E0BF2EE7
:107E6000A2D0813461F49FD0082FAFD0023811F036
:107E7000013811F484E001C083E08DD089C08234E0
:107E800011F484E103C0853419F485E0A6D080C0E4
:107E9000853579F488D0E82EFF2485D0082F10E0AE
:107EA000102F00270E291F29000F111F8ED06801E7
:107EB0006FC0863521F484E090D080E0DECF843638
:107EC00009F040C070D06FD0082F6DD080E0C81688
:107ED00080E7D80618F4F601B7BEE895C0E0D1E017
:107EE00062D089930C17E1F7F0E0CF16F0E7DF06D8
:107EF00018F0F601B7BEE89568D007B600FCFDCFD4
:107F0000A601A0E0B1E02C9130E011968C91119780
:107F100090E0982F8827822B932B1296FA010C0160
:107F200087BEE89511244E5F5F4FF1E0A038BF0790
:107F300051F7F601A7BEE89507B600FCFDCF97BE46
:107F4000E89526C08437B1F42ED02DD0F82E2BD052
:107F50003CD0F601EF2C8F010F5F1F4F84911BD097
:107F6000EA94F801C1F70894C11CD11CFA94CF0C13
:107F7000D11C0EC0853739F428D08EE10CD085E9AC
:107F80000AD08FE07ACF813511F488E018D01DD067
:107F900080E101D065CF982F8091C00085FFFCCF94
:107FA0009093C60008958091C00087FFFCCF809118
:107FB000C00084FD01C0A8958091C6000895E0E648
:107FC000F0E098E1908380830895EDDF803219F02E
:107FD00088E0F5DFFFCF84E1DECF1F93182FE3DFCA
:107FE0001150E9F7F2DF1F91089580E0E8DFEE27F6
:047FF000FF270994CA
:027FFE00040479
:0400000300007E007B
:00000001FF
